{"abi":[{"type":"constructor","inputs":[{"name":"_gamaTokenAddress","type":"address","internalType":"address"},{"name":"vrfCoordinator","type":"address","internalType":"address"},{"name":"subscriptionId","type":"uint64","internalType":"uint64"},{"name":"keyHash","type":"bytes32","internalType":"bytes32"},{"name":"_callbackGasLimit","type":"uint32","internalType":"uint32"},{"name":"_requestConfirmations","type":"uint16","internalType":"uint16"},{"name":"_numWords","type":"uint8","internalType":"uint8"}],"stateMutability":"nonpayable"},{"type":"function","name":"BURNER_ROLE","inputs":[],"outputs":[{"name":"","type":"bytes32","internalType":"bytes32"}],"stateMutability":"view"},{"type":"function","name":"HEADS","inputs":[],"outputs":[{"name":"","type":"uint8","internalType":"uint8"}],"stateMutability":"view"},{"type":"function","name":"MAX_BET_AMOUNT","inputs":[],"outputs":[{"name":"","type":"uint256","internalType":"uint256"}],"stateMutability":"view"},{"type":"function","name":"MAX_HISTORY_SIZE","inputs":[],"outputs":[{"name":"","type":"uint8","internalType":"uint8"}],"stateMutability":"view"},{"type":"function","name":"MAX_POSSIBLE_PAYOUT","inputs":[],"outputs":[{"name":"","type":"uint256","internalType":"uint256"}],"stateMutability":"view"},{"type":"function","name":"MINTER_ROLE","inputs":[],"outputs":[{"name":"","type":"bytes32","internalType":"bytes32"}],"stateMutability":"view"},{"type":"function","name":"RESULT_FORCE_STOPPED","inputs":[],"outputs":[{"name":"","type":"uint8","internalType":"uint8"}],"stateMutability":"view"},{"type":"function","name":"RESULT_RECOVERED","inputs":[],"outputs":[{"name":"","type":"uint8","internalType":"uint8"}],"stateMutability":"view"},{"type":"function","name":"TAILS","inputs":[],"outputs":[{"name":"","type":"uint8","internalType":"uint8"}],"stateMutability":"view"},{"type":"function","name":"canStartNewGame","inputs":[{"name":"player","type":"address","internalType":"address"}],"outputs":[{"name":"","type":"bool","internalType":"bool"}],"stateMutability":"view"},{"type":"function","name":"flipCoin","inputs":[{"name":"chosenSide","type":"uint8","internalType":"uint8"},{"name":"amount","type":"uint256","internalType":"uint256"}],"outputs":[{"name":"requestId","type":"uint256","internalType":"uint256"}],"stateMutability":"nonpayable"},{"type":"function","name":"forceStopGame","inputs":[{"name":"player","type":"address","internalType":"address"}],"outputs":[],"stateMutability":"nonpayable"},{"type":"function","name":"gamaToken","inputs":[],"outputs":[{"name":"","type":"address","internalType":"contract IERC20"}],"stateMutability":"view"},{"type":"function","name":"getBetHistory","inputs":[{"name":"player","type":"address","internalType":"address"}],"outputs":[{"name":"","type":"tuple[]","internalType":"struct BetHistory[]","components":[{"name":"chosenSide","type":"uint8","internalType":"uint8"},{"name":"flippedResult","type":"uint8","internalType":"uint8"},{"name":"timestamp","type":"uint32","internalType":"uint32"},{"name":"amount","type":"uint256","internalType":"uint256"},{"name":"payout","type":"uint256","internalType":"uint256"}]}],"stateMutability":"view"},{"type":"function","name":"getGameStatus","inputs":[{"name":"player","type":"address","internalType":"address"}],"outputs":[{"name":"isActive","type":"bool","internalType":"bool"},{"name":"isWin","type":"bool","internalType":"bool"},{"name":"isCompleted","type":"bool","internalType":"bool"},{"name":"chosenSide","type":"uint8","internalType":"uint8"},{"name":"amount","type":"uint256","internalType":"uint256"},{"name":"result","type":"uint8","internalType":"uint8"},{"name":"payout","type":"uint256","internalType":"uint256"},{"name":"requestId","type":"uint256","internalType":"uint256"},{"name":"requestExists","type":"bool","internalType":"bool"},{"name":"requestProcessed","type":"bool","internalType":"bool"},{"name":"recoveryEligible","type":"bool","internalType":"bool"},{"name":"lastPlayTimestamp","type":"uint256","internalType":"uint256"}],"stateMutability":"view"},{"type":"function","name":"getPlayerForRequest","inputs":[{"name":"requestId","type":"uint256","internalType":"uint256"}],"outputs":[{"name":"","type":"address","internalType":"address"}],"stateMutability":"view"},{"type":"function","name":"getUserData","inputs":[{"name":"player","type":"address","internalType":"address"}],"outputs":[{"name":"gameState","type":"tuple","internalType":"struct GameState","components":[{"name":"isActive","type":"bool","internalType":"bool"},{"name":"completed","type":"bool","internalType":"bool"},{"name":"chosenSide","type":"uint8","internalType":"uint8"},{"name":"result","type":"uint8","internalType":"uint8"},{"name":"amount","type":"uint256","internalType":"uint256"},{"name":"payout","type":"uint256","internalType":"uint256"}]},{"name":"lastPlayed","type":"uint256","internalType":"uint256"}],"stateMutability":"view"},{"type":"function","name":"hasPendingRequest","inputs":[{"name":"player","type":"address","internalType":"address"}],"outputs":[{"name":"","type":"bool","internalType":"bool"}],"stateMutability":"view"},{"type":"function","name":"owner","inputs":[],"outputs":[{"name":"","type":"address","internalType":"address"}],"stateMutability":"view"},{"type":"function","name":"pause","inputs":[],"outputs":[],"stateMutability":"nonpayable"},{"type":"function","name":"paused","inputs":[],"outputs":[{"name":"","type":"bool","internalType":"bool"}],"stateMutability":"view"},{"type":"function","name":"rawFulfillRandomWords","inputs":[{"name":"requestId","type":"uint256","internalType":"uint256"},{"name":"randomWords","type":"uint256[]","internalType":"uint256[]"}],"outputs":[],"stateMutability":"nonpayable"},{"type":"function","name":"recoverOwnStuckGame","inputs":[],"outputs":[],"stateMutability":"nonpayable"},{"type":"function","name":"renounceOwnership","inputs":[],"outputs":[],"stateMutability":"nonpayable"},{"type":"function","name":"s_requests","inputs":[{"name":"","type":"uint256","internalType":"uint256"}],"outputs":[{"name":"fulfilled","type":"bool","internalType":"bool"},{"name":"exists","type":"bool","internalType":"bool"}],"stateMutability":"view"},{"type":"function","name":"totalGamesPlayed","inputs":[],"outputs":[{"name":"","type":"uint256","internalType":"uint256"}],"stateMutability":"view"},{"type":"function","name":"totalPayoutAmount","inputs":[],"outputs":[{"name":"","type":"uint256","internalType":"uint256"}],"stateMutability":"view"},{"type":"function","name":"totalWageredAmount","inputs":[],"outputs":[{"name":"","type":"uint256","internalType":"uint256"}],"stateMutability":"view"},{"type":"function","name":"transferOwnership","inputs":[{"name":"newOwner","type":"address","internalType":"address"}],"outputs":[],"stateMutability":"nonpayable"},{"type":"function","name":"unpause","inputs":[],"outputs":[],"stateMutability":"nonpayable"},{"type":"event","name":"BetPlaced","inputs":[{"name":"player","type":"address","indexed":true,"internalType":"address"},{"name":"requestId","type":"uint256","indexed":false,"internalType":"uint256"},{"name":"chosenSide","type":"uint8","indexed":false,"internalType":"uint8"},{"name":"amount","type":"uint256","indexed":false,"internalType":"uint256"}],"anonymous":false},{"type":"event","name":"GameCompleted","inputs":[{"name":"player","type":"address","indexed":true,"internalType":"address"},{"name":"requestId","type":"uint256","indexed":false,"internalType":"uint256"},{"name":"result","type":"uint8","indexed":false,"internalType":"uint8"},{"name":"payout","type":"uint256","indexed":false,"internalType":"uint256"}],"anonymous":false},{"type":"event","name":"GameRecovered","inputs":[{"name":"player","type":"address","indexed":true,"internalType":"address"},{"name":"requestId","type":"uint256","indexed":false,"internalType":"uint256"},{"name":"refundAmount","type":"uint256","indexed":false,"internalType":"uint256"}],"anonymous":false},{"type":"event","name":"OwnershipTransferred","inputs":[{"name":"previousOwner","type":"address","indexed":true,"internalType":"address"},{"name":"newOwner","type":"address","indexed":true,"internalType":"address"}],"anonymous":false},{"type":"event","name":"Paused","inputs":[{"name":"account","type":"address","indexed":false,"internalType":"address"}],"anonymous":false},{"type":"event","name":"Unpaused","inputs":[{"name":"account","type":"address","indexed":false,"internalType":"address"}],"anonymous":false},{"type":"error","name":"BurnFailed","inputs":[{"name":"account","type":"address","internalType":"address"},{"name":"amount","type":"uint256","internalType":"uint256"}]},{"type":"error","name":"EnforcedPause","inputs":[]},{"type":"error","name":"ExpectedPause","inputs":[]},{"type":"error","name":"GameError","inputs":[{"name":"reason","type":"string","internalType":"string"}]},{"type":"error","name":"InsufficientAllowance","inputs":[{"name":"required","type":"uint256","internalType":"uint256"},{"name":"allowed","type":"uint256","internalType":"uint256"}]},{"type":"error","name":"InsufficientUserBalance","inputs":[{"name":"required","type":"uint256","internalType":"uint256"},{"name":"available","type":"uint256","internalType":"uint256"}]},{"type":"error","name":"InvalidBetParameters","inputs":[{"name":"reason","type":"string","internalType":"string"}]},{"type":"error","name":"MaxPayoutExceeded","inputs":[{"name":"potentialPayout","type":"uint256","internalType":"uint256"},{"name":"maxAllowed","type":"uint256","internalType":"uint256"}]},{"type":"error","name":"MintFailed","inputs":[{"name":"account","type":"address","internalType":"address"},{"name":"amount","type":"uint256","internalType":"uint256"}]},{"type":"error","name":"MissingContractRole","inputs":[{"name":"role","type":"bytes32","internalType":"bytes32"}]},{"type":"error","name":"OnlyCoordinatorCanFulfill","inputs":[{"name":"have","type":"address","internalType":"address"},{"name":"want","type":"address","internalType":"address"}]},{"type":"error","name":"OwnableInvalidOwner","inputs":[{"name":"owner","type":"address","internalType":"address"}]},{"type":"error","name":"OwnableUnauthorizedAccount","inputs":[{"name":"account","type":"address","internalType":"address"}]},{"type":"error","name":"PayoutCalculationError","inputs":[{"name":"message","type":"string","internalType":"string"}]},{"type":"error","name":"ReentrancyGuardReentrantCall","inputs":[]},{"type":"error","name":"TransferFailed","inputs":[{"name":"from","type":"address","internalType":"address"},{"name":"to","type":"address","internalType":"address"},{"name":"amount","type":"uint256","internalType":"uint256"}]},{"type":"error","name":"VRFError","inputs":[{"name":"reason","type":"string","internalType":"string"}]}],"bytecode":{"object":"0x6101803461030457601f61378d38819003918201601f19168301916001600160401b038311848410176103085780849260e094604052833981010312610304576100488161031c565b906100556020820161031c565b60408201519092906001600160401b03811681036103045760608301519060808401519263ffffffff8416908185036103045760a08601519561ffff871687036103045760c001519660ff8816908189036103045760015f558060805233156102f15760018054610100600160a81b0319811633600881811b610100600160a81b031692909217909355604051959291901c6001600160a01b03167f8be0079c531659141344cd1fd0a4f28419497f9722a3daafe3b4186f6b6457e05f80a36001600160a01b03169283156102af57506001600160a01b031692831561026a571561021b57156101d65760a05260c05260e0526101005261012052610140526101605260405161345c908161033182396080518161251e015260a051818181610365015281816111c60152818161149301528181611b8b0152612dbf015260c05181610713015260e0518161065101526101005181610622015261012051816106a70152610140518161067b0152610160518181816106d00152612af00152f35b60405162461bcd60e51b815260206004820152601e60248201527f4e756d626572206f6620776f7264732063616e6e6f74206265207a65726f00006044820152606490fd5b60405162461bcd60e51b815260206004820152602160248201527f43616c6c6261636b20676173206c696d69742063616e6e6f74206265207a65726044820152606f60f81b6064820152608490fd5b60405162461bcd60e51b815260206004820152601e60248201527f56524620636f6f7264696e61746f722063616e6e6f74206265207a65726f00006044820152606490fd5b62461bcd60e51b815260206004820152601c60248201527f546f6b656e20616464726573732063616e6e6f74206265207a65726f000000006044820152606490fd5b631e4fbdf760e01b5f525f60045260245ffd5b5f80fd5b634e487b7160e01b5f52604160045260245ffd5b51906001600160a01b03821682036103045756fe6080806040526004361015610012575f80fd5b5f905f3560e01c908163042431511461261e575080630c99375d146125bb5780631995cec6146125a05780631fe543e314612497578063282c51f31461245d578063309167f51461243857806338f8bc6d1461241d5780633f4ba83a146123925780634689b4411461236d5780634ca1a8381461235257806354e4437e146121af57806357816f3e146121945780635bdb2e1b146121775780635c4921291461215a5780635c975abb146121385780635d424b85146120d4578063715018a6146120535780638456cb5914611fef5780638da5cb5b14611fb9578063a168fa8914611f7f578063a20ff9fc146119cd578063b52a0855146112f8578063c1066251146112dc578063ce84a53b14611225578063d5391393146111ea578063d56ec8c914611199578063e7efcfc21461117b578063f2fde38b14611083578063f3b4d4cb146102d25763ffc9896b14610168575f80fd5b346102cf5760206003193601126102cf5760043573ffffffffffffffffffffffffffffffffffffffff81168091036102cd578160a06040516101a98161265a565b8281528260208201528260408201528260608201528260808201520152801561026e578160409160e0935260026020522063ffffffff6005820154166040516101f18161265a565b82549260ff8085161515948584528160208501818360081c16151581526040860190828460101c16825282606088019460181c16845260a0600260018801549760808a0198895201549701968752604051988952511515602089015251166040870152511660608501525160808401525160a083015260c0820152f35b6040517f34460f4100000000000000000000000000000000000000000000000000000000815260206004820152601660248201527f496e76616c696420706c617965722061646472657373000000000000000000006044820152606490fd5b505b80fd5b50346102cf5760406003193601126102cf5760043560ff8116918282036102cf57602435916102ff6132f6565b61030761332d565b8215611025576a084595161401484a0000008311610fc757600184141580610fbc575b610f38573382526002602052604082209260ff845416610eda57600384018054610e7c5773ffffffffffffffffffffffffffffffffffffffff7f0000000000000000000000000000000000000000000000000000000000000000166040517f70a08231000000000000000000000000000000000000000000000000000000008152336004820152602081602481855afa908115610c31579084918791610e47575b5010610d9c576040517fdd62ed3e000000000000000000000000000000000000000000000000000000008152336004820152306024820152602081604481855afa908115610c31579084918791610d67575b5010610ca7576040517f91d148540000000000000000000000000000000000000000000000000000000081527f3c11d16cbaffd01df69ce1c404f6340ee057498f5f00246190ea54220576a8486004820152306024820152602081604481855afa908115610c31578691610c88575b5015610c3c576040517f91d148540000000000000000000000000000000000000000000000000000000081527f9f2df0fed2c77648de5860a4cc508cd0818c85b8b8a1ab4ceeef8d981c8956a66004820152306024820152602081604481855afa908115610c31578691610c02575b5015610bb6578260011b838104600203610b8957837f7fffffffffffffffffffffffffffffffffffffffffffffffffffffffffffffff811603610b2b576a108b2a2c280290940000008111610af157604051907f6f97e31c000000000000000000000000000000000000000000000000000000008252602082600481865afa918215610ae6578792610ab2575b50818111610a84575050803b15610a80576040517f79cc6790000000000000000000000000000000000000000000000000000000008152336004820152602481018490529085908290604490829084905af18015610a5c57908591610a67575b50506105f682600554612718565b600555604051947f5d3b1d300000000000000000000000000000000000000000000000000000000086527f0000000000000000000000000000000000000000000000000000000000000000600487015267ffffffffffffffff7f000000000000000000000000000000000000000000000000000000000000000016602487015261ffff7f000000000000000000000000000000000000000000000000000000000000000016604487015263ffffffff7f000000000000000000000000000000000000000000000000000000000000000016606487015260ff7f000000000000000000000000000000000000000000000000000000000000000016608487015260208660a4818873ffffffffffffffffffffffffffffffffffffffff7f0000000000000000000000000000000000000000000000000000000000000000165af1958615610a5c578596610a24575b5060209660405161075489826126bf565b8681525f3681376040516060810181811067ffffffffffffffff8211176109f757906001916040528881528a8101828152604082019384528a8a5260068c5260408a209151151560ff60ff19845416911515161782555115157fffffffffffffffffffffffffffffffffffffffffffffffffffffffffffff00ff61ff00835492151560081b1691161781550190519081519167ffffffffffffffff83116109f75791818b8094610808848e9a99989661276e565b01908a52838a208a5b8381106109e0575050505092876002819897948260a089966109d4997f1efa8a4db358fbd4b3e1004cca7c5a1bdc9de3512d3392d48a51d1961316f9839b60019f526007825260408420337fffffffffffffffffffffffff000000000000000000000000000000000000000082541617905588845260088252604084208f60ff198254161790556005850163ffffffff42167fffffffffffffffffffffffffffffffffffffffffffffffffffffffff00000000825416179055436006860155600785017fffffffffffffffffffffffffffffffffffffffffffffffffffffffffffff00ff815416905583604051926109088461265a565b60018452830152604082015282606082015288608082015201528a60ff198254161781557fffffffffffffffffffffffffffffffffffffffffffffffffffffffffffff00ff815416815580547fffffffffffffffffffffffffffffffffffffffffffffffffffffffffff00ffff62ff00008b60101b1691161781557fffffffffffffffffffffffffffffffffffffffffffffffffffffffff00ffffff8154168155858b8201550155556040519182913395898460ff604092959493606083019683521660208201520152565b0390a255604051908152f35b8251818301558c98508d9590920191600101610811565b6024897f4e487b710000000000000000000000000000000000000000000000000000000081526041600452fd5b9095506020813d602011610a54575b81610a40602093836126bf565b81010312610a505751945f610743565b5f80fd5b3d9150610a33565b6040513d87823e3d90fd5b81610a71916126bf565b610a7c57835f6105e8565b8380fd5b8480fd5b7f21e510be000000000000000000000000000000000000000000000000000000008752600452602452604485fd5b9091506020813d602011610ade575b81610ace602093836126bf565b81010312610a505751905f610588565b3d9150610ac1565b6040513d89823e3d90fd5b7f21e510be0000000000000000000000000000000000000000000000000000000086526004526a108b2a2c28029094000000602452604485fd5b60646040517f327512f600000000000000000000000000000000000000000000000000000000815260206004820152601b60248201527f5061796f75742063616c63756c6174696f6e206f766572666c6f7700000000006044820152fd5b6024867f4e487b710000000000000000000000000000000000000000000000000000000081526011600452fd5b6024857fb3eebf6e0000000000000000000000000000000000000000000000000000000081527f9f2df0fed2c77648de5860a4cc508cd0818c85b8b8a1ab4ceeef8d981c8956a6600452fd5b610c24915060203d602011610c2a575b610c1c81836126bf565b8101906127b3565b5f6104fb565b503d610c12565b6040513d88823e3d90fd5b6024857fb3eebf6e0000000000000000000000000000000000000000000000000000000081527f3c11d16cbaffd01df69ce1c404f6340ee057498f5f00246190ea54220576a848600452fd5b610ca1915060203d602011610c2a57610c1c81836126bf565b5f61048c565b6040517fdd62ed3e0000000000000000000000000000000000000000000000000000000081523360048201523060248201529085908490602090849060449082905afa908115610d5c578291610d27575b604493507f2a1b2dd8000000000000000000000000000000000000000000000000000000008352600452602452fd5b90506020833d602011610d54575b81610d42602093836126bf565b81010312610a50576044925190610cf8565b3d9150610d35565b6040513d84823e3d90fd5b9150506020813d602011610d94575b81610d83602093836126bf565b81010312610a50578390515f61041d565b3d9150610d76565b84836020602493604051948580927f70a082310000000000000000000000000000000000000000000000000000000082523360048301525afa908115610d5c578291610e12575b604493507f5f504d20000000000000000000000000000000000000000000000000000000008352600452602452fd5b90506020833d602011610e3f575b81610e2d602093836126bf565b81010312610a50576044925190610de3565b3d9150610e20565b9150506020813d602011610e74575b81610e63602093836126bf565b81010312610a50578390515f6103cb565b3d9150610e56565b60646040517f13b419a900000000000000000000000000000000000000000000000000000000815260206004820152601a60248201527f557365722068617320612070656e64696e6720726571756573740000000000006044820152fd5b60646040517f13b419a900000000000000000000000000000000000000000000000000000000815260206004820152601760248201527f557365722068617320616e206163746976652067616d650000000000000000006044820152fd5b60846040517f34460f4100000000000000000000000000000000000000000000000000000000815260206004820152603860248201527f496e76616c69642063686f73656e207369646520286d7573742062652031206660448201527f6f72204845414453206f72203220666f72205441494c532900000000000000006064820152fd5b50600284141561032a565b60646040517f34460f4100000000000000000000000000000000000000000000000000000000815260206004820152601460248201527f42657420616d6f756e7420746f6f206c617267650000000000000000000000006044820152fd5b60646040517f34460f4100000000000000000000000000000000000000000000000000000000815260206004820152601960248201527f42657420616d6f756e742063616e6e6f74206265207a65726f000000000000006044820152fd5b50346102cf5760206003193601126102cf5760043573ffffffffffffffffffffffffffffffffffffffff811690818103611177576110bf6132a6565b811561114b5773ffffffffffffffffffffffffffffffffffffffff9074ffffffffffffffffffffffffffffffffffffffff006001549160081b167fffffffffffffffffffffff0000000000000000000000000000000000000000ff82161760015560081c167f8be0079c531659141344cd1fd0a4f28419497f9722a3daafe3b4186f6b6457e08380a380f35b6024837f1e4fbdf700000000000000000000000000000000000000000000000000000000815280600452fd5b8280fd5b50346102cf57806003193601126102cf576020600454604051908152f35b50346102cf57806003193601126102cf57602060405173ffffffffffffffffffffffffffffffffffffffff7f0000000000000000000000000000000000000000000000000000000000000000168152f35b50346102cf57806003193601126102cf5760206040517f9f2df0fed2c77648de5860a4cc508cd0818c85b8b8a1ab4ceeef8d981c8956a68152f35b50346102cf5760206003193601126102cf5760043573ffffffffffffffffffffffffffffffffffffffff811681036102cd5761126090612878565b90604051918291602083016020845282518091526020604085019301915b81811061128c575050500390f35b91935091602060a06001926080875160ff815116835260ff85820151168584015263ffffffff6040820151166040840152606081015160608401520151608082015201940191019184939261127e565b50346102cf57806003193601126102cf576020604051600a8152f35b50346102cf5760206003193601126102cf5760043573ffffffffffffffffffffffffffffffffffffffff811690818103611177576113346132a6565b61133c6132f6565b8183526002602052604083209060ff8254161561196e576003820190815492831515808091611958575b8061193f575b6118ba57600682015461012c810180911161188d5743118163ffffffff61139881600587015416612725565b16421181611873575b82159261186a575b508115611861575b506117de57600182015493841561177f57879161171a575b82547fffffffffffffffffffffffffffffffffffffffffffffffffffffffff00ff00001663fe00010017835560028301859055556007810180547fffffffffffffffffffffffffffffffffffffffffffffffffffffffffffff00ff1681556040517f91d148540000000000000000000000000000000000000000000000000000000081527f9f2df0fed2c77648de5860a4cc508cd0818c85b8b8a1ab4ceeef8d981c8956a6600482015230602482015290929073ffffffffffffffffffffffffffffffffffffffff7f00000000000000000000000000000000000000000000000000000000000000001690602081604481855afa90811561170f5789916116f0575b50156116a457908188923b15611177576040517f40c10f1900000000000000000000000000000000000000000000000000000000815273ffffffffffffffffffffffffffffffffffffffff9290921660048301526024820186905282908290604490829084905af18015610d5c5761168b575b5050600460ff825460101c169160405192611558846126a3565b835260fe602084015263ffffffff421660408401528460608401528460808401520190600a8254105f1461162c578154680100000000000000008110156115ff5760ff600a604096946115df7ff43f4cfd330c9814ec89dcb330ca1c7559745bb35a6ea4068b171116c4ea3d539997956115d98660018798018555846127d8565b90613361565b5406161660ff198254161790555b82519182526020820152a26001815580f35b6024887f4e487b710000000000000000000000000000000000000000000000000000000081526041600452fd5b6115d961163e9260ff855416906127d8565b600160ff8254160160ff8111610b8957917ff43f4cfd330c9814ec89dcb330ca1c7559745bb35a6ea4068b171116c4ea3d53939160ff600a8160409616061660ff198254161790556115ed565b81611695916126bf565b6116a057855f61153e565b8580fd5b6024887fb3eebf6e0000000000000000000000000000000000000000000000000000000081527f9f2df0fed2c77648de5860a4cc508cd0818c85b8b8a1ab4ceeef8d981c8956a6600452fd5b611709915060203d602011610c2a57610c1c81836126bf565b5f6114cb565b6040513d8b823e3d90fd5b8582526007602052604082207fffffffffffffffffffffffff0000000000000000000000000000000000000000815416905585825260086020526040822060ff198154169055858252600660205261177a6001604084208481550161273e565b6113c9565b6040517f13b419a900000000000000000000000000000000000000000000000000000000815260206004820152601160248201527f4e6f7468696e6720746f20726566756e640000000000000000000000000000006044820152606490fd5b60846040517f13b419a9000000000000000000000000000000000000000000000000000000008152602060048201526024808201527f47616d65206e6f7420656c696769626c6520666f7220666f7263652073746f7060448201527f20796574000000000000000000000000000000000000000000000000000000006064820152fd5b9050155f6113b1565b1591505f6113a9565b878a52600660205260408a205460081c60ff1691506113a1565b6024887f4e487b710000000000000000000000000000000000000000000000000000000081526011600452fd5b6040517f13b419a900000000000000000000000000000000000000000000000000000000815260206004820152602860248201527f52657175657374206a7573742066756c66696c6c65642c206c6574205652462060448201527f636f6d706c6574650000000000000000000000000000000000000000000000006064820152608490fd5b506006820154600a810180911161188d5743111561136c565b50848752600660205260ff604088205416611366565b6040517f13b419a900000000000000000000000000000000000000000000000000000000815260206004820152600e60248201527f4e6f206163746976652067616d650000000000000000000000000000000000006044820152606490fd5b5034610a50575f600319360112610a50576119e66132f6565b6119ee61332d565b335f52600260205260405f2060ff8154161561196e57600381018054918215611f2157825f52600660205260ff60405f20541680611f08575b6118ba57600681015461012c8101809111611edb57431163ffffffff611a5281600585015416612725565b164211845f52600660205260ff60405f205460081c1690821592611ed2575b508115611ec9575b50611e4557600181015491821561177f575f908482526006602052611aa66001604084208481550161273e565b8482526007602052604082207fffffffffffffffffffffffff0000000000000000000000000000000000000000815416905584825260086020526040822060ff1981541690556101007fffffffffffffffffffffffffffffffffffffffffffffffffffffffffffff000084541617835563ff0000007fffffffffffffffffffffffffffffffffffffffffffffffffffffffff00ffffff8454161783558360028401555560078101907fffffffffffffffffffffffffffffffffffffffffffffffffffffffffffff00ff825416825573ffffffffffffffffffffffffffffffffffffffff7f0000000000000000000000000000000000000000000000000000000000000000166040517f91d148540000000000000000000000000000000000000000000000000000000081527f9f2df0fed2c77648de5860a4cc508cd0818c85b8b8a1ab4ceeef8d981c8956a66004820152306024820152602081604481855afa908115611dcf575f91611e26575b5015611dda57803b15610a50576040517f40c10f1900000000000000000000000000000000000000000000000000000000815233600482015260248101859052905f908290604490829084905af18015611dcf57611dba575b50600460ff825460101c169160405192611c86846126a3565b835260ff602084015263ffffffff421660408401528460608401528460808401520190600a8254105f14611d5457815468010000000000000000811015611d275760ff92611ce184936115d9846001600a96018555846127d8565b5406161660ff198254161790555b60405191825260208201527ff43f4cfd330c9814ec89dcb330ca1c7559745bb35a6ea4068b171116c4ea3d5360403392a26001815580f35b6024877f4e487b710000000000000000000000000000000000000000000000000000000081526041600452fd5b6115d9611d669260ff855416906127d8565b600160ff8254160160ff8111611d8d57600a60ff809216061660ff19825416179055611cef565b6024857f4e487b710000000000000000000000000000000000000000000000000000000081526011600452fd5b611dc79195505f906126bf565b5f935f611c6d565b6040513d5f823e3d90fd5b7fb3eebf6e000000000000000000000000000000000000000000000000000000005f527f9f2df0fed2c77648de5860a4cc508cd0818c85b8b8a1ab4ceeef8d981c8956a660045260245ffd5b611e3f915060203d602011610c2a57610c1c81836126bf565b5f611c14565b60846040517f13b419a900000000000000000000000000000000000000000000000000000000815260206004820152602260248201527f47616d65206e6f7420656c696769626c6520666f72207265636f76657279207960448201527f65740000000000000000000000000000000000000000000000000000000000006064820152fd5b9050155f611a79565b1591505f611a71565b7f4e487b71000000000000000000000000000000000000000000000000000000005f52601160045260245ffd5b506006810154600a8101809111611edb57431115611a27565b60646040517f13b419a900000000000000000000000000000000000000000000000000000000815260206004820152601d60248201527f4e6f2070656e64696e67207265717565737420746f207265636f7665720000006044820152fd5b34610a50576020600319360112610a50576004355f5260066020526040805f205460ff8251918181161515835260081c1615156020820152f35b34610a50575f600319360112610a5057602073ffffffffffffffffffffffffffffffffffffffff60015460081c16604051908152f35b34610a50575f600319360112610a50576120076132a6565b61200f6132f6565b61201761332d565b600160ff19815416176001557f62e78cea01bee320cd4e420270b5ea74000d11b0c9f74754ebdbfc544b05a2586020604051338152a160015f55005b34610a50575f600319360112610a505761206b6132a6565b5f73ffffffffffffffffffffffffffffffffffffffff6001547fffffffffffffffffffffff0000000000000000000000000000000000000000ff811660015560081c167f8be0079c531659141344cd1fd0a4f28419497f9722a3daafe3b4186f6b6457e08280a3005b34610a50576020600319360112610a505760043573ffffffffffffffffffffffffffffffffffffffff8116809103610a50575f526002602052602060405f2060ff81541615908161212b575b506040519015158152f35b6003915001541582612120565b34610a50575f600319360112610a5057602060ff600154166040519015158152f35b34610a50575f600319360112610a50576020600354604051908152f35b34610a50575f600319360112610a50576020600554604051908152f35b34610a50575f600319360112610a5057602060405160ff8152f35b34610a50576020600319360112610a505760043573ffffffffffffffffffffffffffffffffffffffff8116809103610a5057801561026e575f52600260205260405f2080549060ff821660018201549260ff8160181c1692600281015491600382015463ffffffff60058401541693801515968761232d575b8697985f979697945f96851515908161230b575b5f996122a5575b505060ff906101809b6040519b15158c52151560208c0152818160081c16151560408c015260101c1660608a0152608089015260a088015260c087015260e0860152151561010085015215156101208401521515610140830152610160820152f35b6006919c995001549061012c8201809211611edb576101809b60ff9243119063ffffffff6122d28d612725565b16421181612303575b826122fb575b50816122f3575b50989b819250612243565b90508d6122e8565b91508e6122e1565b8991506122db565b97509550845f52600660205260405f20549560ff808860081c1697169761223c565b869750600181979697148015612348575b9750959495612228565b506002811461233e565b34610a50575f600319360112610a5057602060405160028152f35b34610a50575f600319360112610a505760206040516a108b2a2c280290940000008152f35b34610a50575f600319360112610a50576123aa6132a6565b6123b26132f6565b60015460ff8116156123f55760ff19166001557f5db9ee0a495bf2e6ff9c91a7834c1ba4fdd244a5e8aa4e537bd38aeae4b073aa6020604051338152a160015f55005b7f8dfc202b000000000000000000000000000000000000000000000000000000005f5260045ffd5b34610a50575f600319360112610a5057602060405160fe8152f35b34610a50575f600319360112610a505760206040516a084595161401484a0000008152f35b34610a50575f600319360112610a505760206040517f3c11d16cbaffd01df69ce1c404f6340ee057498f5f00246190ea54220576a8488152f35b34610a50576040600319360112610a505760243567ffffffffffffffff8111610a505736602382011215610a50578060040135906124d482612700565b916124e260405193846126bf565b8083526024602084019160051b83010191368311610a5057602401905b828210612590578373ffffffffffffffffffffffffffffffffffffffff7f000000000000000000000000000000000000000000000000000000000000000016908133036125605761255a906125526132f6565b600435612ac5565b60015f55005b507f1cf993f4000000000000000000000000000000000000000000000000000000005f523360045260245260445ffd5b81358152602091820191016124ff565b34610a50575f600319360112610a5057602060405160018152f35b34610a50576020600319360112610a505760043573ffffffffffffffffffffffffffffffffffffffff8116809103610a50575f526002602052602060405f2060ff815416908161261057506040519015158152f35b600391500154151582612120565b34610a50576020600319360112610a50576020906004355f526007825273ffffffffffffffffffffffffffffffffffffffff60405f2054168152f35b60c0810190811067ffffffffffffffff82111761267657604052565b7f4e487b71000000000000000000000000000000000000000000000000000000005f52604160045260245ffd5b60a0810190811067ffffffffffffffff82111761267657604052565b90601f7fffffffffffffffffffffffffffffffffffffffffffffffffffffffffffffffe0910116810190811067ffffffffffffffff82111761267657604052565b67ffffffffffffffff81116126765760051b60200190565b91908201809211611edb57565b63ffffffff610e109116019063ffffffff8211611edb57565b8054905f81558161274d575050565b5f5260205f20908101905b818110612763575050565b5f8155600101612758565b906801000000000000000081116126765781549181815582821061279157505050565b5f5260205f2091820191015b8181106127a8575050565b5f815560010161279d565b90816020910312610a5057518015158103610a505790565b91908203918211611edb57565b80548210156127f1575f52600360205f20910201905f90565b7f4e487b71000000000000000000000000000000000000000000000000000000005f52603260045260245ffd5b80518210156127f15760209160051b010190565b9060405161283f816126a3565b60806002829463ffffffff815460ff8116865260ff8160081c16602087015260101c166040850152600181015460608501520154910152565b73ffffffffffffffffffffffffffffffffffffffff60609116801561026e575f52600260205260405f2090600482018054918215612a6a5750600a821115612a6357600a925b7fffffffffffffffffffffffffffffffffffffffffffffffffffffffffffffffe06129016128eb86612700565b956128f960405197886126bf565b808752612700565b015f5b818110612a2e575050600a83101561298e57507fffffffffffffffffffffffffffffffffffffffffffffffffffffffffffffffff82018281115f5b84811061294e57505050505090565b81611edb578061297261296c612966600194876127cb565b876127d8565b50612832565b61297c828961281e565b52612987818861281e565b500161293f565b6007015490915060ff16806129fc575060ff60095b16905f91600a8101809111925b600a81106129bf575050505090565b83611edb57806129e061296c600a6129d9600195876127cb565b06866127d8565b6129ea828861281e565b526129f5818761281e565b50016129b0565b7fffffffffffffffffffffffffffffffffffffffffffffffffffffffffffffffff0160ff8111611edb5760ff906129a3565b602090604051612a3d816126a3565b5f81525f838201525f60408201525f60608201525f608082015282828901015201612904565b81926128be565b9250505060405190612a7d6020836126bf565b5f82525f90815b828110612a915750505090565b602090604051612aa0816126a3565b5f81525f838201525f60408201525f848201525f608082015282828701015201612a84565b90815f52600660205260405f209182549060ff8260081c16156132485760ff82166131ea57825160ff7f0000000000000000000000000000000000000000000000000000000000000000160361318c57805f52600760205273ffffffffffffffffffffffffffffffffffffffff60405f20541693841561312d57845f52600260205260405f20926003840191838354036130cf57600160ff1981931617815501845167ffffffffffffffff811161267657612b80818361276e565b6020860180925f5260205f205f5b8381106130bb575050505060078401906101007fffffffffffffffffffffffffffffffffffffffffffffffffffffffffffff00ff83541617825560ff8554161561302b5760ff855460101c169060018601549651156127f1578060019150511660018101809111611edb5760ff16945f96868314612f64575b81547fffffffffffffffffffffffffffffffffffffffffffffffffffffffff00ff000016601888901b63ff000000161761010017825560028201889055604051926004929190612c56856126a3565b845287602085015263ffffffff4216604085015260608401528760808401520190600a8254105f14612f2b57815490680100000000000000008210156126765760ff92612cb0600a926115d98560018897018555846127d8565b5406161660ff198254161781555b5f8515159283612f17575b6001600354016003558482526007602052604082207fffffffffffffffffffffffff0000000000000000000000000000000000000000815416905584825260086020526040822060ff1981541690558482526006602052612d326001604084208481550161273e565b557fffffffffffffffffffffffffffffffffffffffffffffffffffffffffffff00ff8154169055612da8575b612da37fc74777e2214d32e7b4952c2ecbbfc0ec7dc3642e448c3c927261cb69d9f03650936040519384938460ff604092959493606083019683521660208201520152565b0390a2565b73ffffffffffffffffffffffffffffffffffffffff7f000000000000000000000000000000000000000000000000000000000000000016926040517f91d148540000000000000000000000000000000000000000000000000000000081527f9f2df0fed2c77648de5860a4cc508cd0818c85b8b8a1ab4ceeef8d981c8956a66004820152306024820152602081604481885afa908115611dcf575f91612ef8575b5015611dda57833b15610a50576040517f40c10f1900000000000000000000000000000000000000000000000000000000815273ffffffffffffffffffffffffffffffffffffffff8616600482015260248101829052935f908590604490829084905af1908115611dcf577fc74777e2214d32e7b4952c2ecbbfc0ec7dc3642e448c3c927261cb69d9f0365094612da392612ee8575b50935050612d5e565b5f612ef2916126bf565b5f612edf565b612f11915060203d602011610c2a57610c1c81836126bf565b5f612e49565b612f2387600454612718565b600455612cc9565b6115d9612f3d9260ff855416906127d8565b600160ff8254160160ff8111611edb57600a60ff809216061660ff19825416178155612cbe565b96507f7fffffffffffffffffffffffffffffffffffffffffffffffffffffffffffffff8711612fa7578660011b9087820460021488151715611edb579096612c07565b60846040517f327512f600000000000000000000000000000000000000000000000000000000815260206004820152602b60248201527f42657420616d6f756e7420746f6f206c6172676520666f72207061796f75742060448201527f63616c63756c6174696f6e0000000000000000000000000000000000000000006064820152fd5b50945091505f9250808352600660205261304d6001604085208581550161273e565b8083526007602052604083207fffffffffffffffffffffffff00000000000000000000000000000000000000008154169055825260086020526040822060ff198154169055557fffffffffffffffffffffffffffffffffffffffffffffffffffffffffffff00ff8154169055565b600190602084519401938184015501612b8e565b60646040517f13b419a900000000000000000000000000000000000000000000000000000000815260206004820152601360248201527f52657175657374204944206d69736d61746368000000000000000000000000006044820152fd5b6040517f1726a07e00000000000000000000000000000000000000000000000000000000815260206004820152601660248201527f496e76616c696420706c617965722061646472657373000000000000000000006044820152606490fd5b60646040517f1726a07e00000000000000000000000000000000000000000000000000000000815260206004820152601b60248201527f496e76616c69642072616e646f6d20776f726473206c656e67746800000000006044820152fd5b60646040517f1726a07e00000000000000000000000000000000000000000000000000000000815260206004820152601960248201527f5265717565737420616c72656164792066756c66696c6c6564000000000000006044820152fd5b60646040517f1726a07e00000000000000000000000000000000000000000000000000000000815260206004820152601160248201527f52657175657374206e6f7420666f756e640000000000000000000000000000006044820152fd5b73ffffffffffffffffffffffffffffffffffffffff60015460081c1633036132ca57565b7f118cdaa7000000000000000000000000000000000000000000000000000000005f523360045260245ffd5b60025f54146133055760025f55565b7f3ee5aeb5000000000000000000000000000000000000000000000000000000005f5260045ffd5b60ff6001541661333957565b7fd93c0665000000000000000000000000000000000000000000000000000000005f5260045ffd5b91906133fa5760808160ff8060029451161660ff19855416178455602081015161ff0085549160081b16807fffffffffffffffffffffffffffffffffffffffffffffffffffffffffffff00ff83161786557fffffffffffffffffffffffffffffffffffffffffffffffffffff0000000000ff65ffffffff0000604085015160101b16921617178455606081015160018501550151910155565b7f4e487b71000000000000000000000000000000000000000000000000000000005f525f60045260245ffdfea2646970667358221220f0c53553c5348ef77d0c00381bbd34a65d195a3ede9c1ac08aa119b512ce12c664736f6c634300081c0033","linkReferences":{}},"methodIdentifiers":{"BURNER_ROLE()":"282c51f3","HEADS()":"1995cec6","MAX_BET_AMOUNT()":"309167f5","MAX_HISTORY_SIZE()":"c1066251","MAX_POSSIBLE_PAYOUT()":"4689b441","MINTER_ROLE()":"d5391393","RESULT_FORCE_STOPPED()":"38f8bc6d","RESULT_RECOVERED()":"57816f3e","TAILS()":"4ca1a838","canStartNewGame(address)":"5d424b85","flipCoin(uint8,uint256)":"f3b4d4cb","forceStopGame(address)":"b52a0855","gamaToken()":"d56ec8c9","getBetHistory(address)":"ce84a53b","getGameStatus(address)":"54e4437e","getPlayerForRequest(uint256)":"04243151","getUserData(address)":"ffc9896b","hasPendingRequest(address)":"0c99375d","owner()":"8da5cb5b","pause()":"8456cb59","paused()":"5c975abb","rawFulfillRandomWords(uint256,uint256[])":"1fe543e3","recoverOwnStuckGame()":"a20ff9fc","renounceOwnership()":"715018a6","s_requests(uint256)":"a168fa89","totalGamesPlayed()":"5c492129","totalPayoutAmount()":"e7efcfc2","totalWageredAmount()":"5bdb2e1b","transferOwnership(address)":"f2fde38b","unpause()":"3f4ba83a"},"id":34}