{
  "abi": [
    {
      "type": "constructor",
      "inputs": [
        {
          "name": "_gamaTokenAddress",
          "type": "address",
          "internalType": "address"
        },
        {
          "name": "vrfCoordinator",
          "type": "address",
          "internalType": "address"
        },
        {
          "name": "subscriptionId",
          "type": "uint64",
          "internalType": "uint64"
        },
        {
          "name": "keyHash",
          "type": "bytes32",
          "internalType": "bytes32"
        },
        {
          "name": "_callbackGasLimit",
          "type": "uint32",
          "internalType": "uint32"
        },
        {
          "name": "_requestConfirmations",
          "type": "uint16",
          "internalType": "uint16"
        },
        {
          "name": "_numWords",
          "type": "uint8",
          "internalType": "uint8"
        }
      ],
      "stateMutability": "nonpayable"
    },
    {
      "type": "function",
      "name": "BURNER_ROLE",
      "inputs": [],
      "outputs": [
        {
          "name": "",
          "type": "bytes32",
          "internalType": "bytes32"
        }
      ],
      "stateMutability": "view"
    },
    {
      "type": "function",
      "name": "HEADS",
      "inputs": [],
      "outputs": [
        {
          "name": "",
          "type": "uint8",
          "internalType": "uint8"
        }
      ],
      "stateMutability": "view"
    },
    {
      "type": "function",
      "name": "MAX_BET_AMOUNT",
      "inputs": [],
      "outputs": [
        {
          "name": "",
          "type": "uint256",
          "internalType": "uint256"
        }
      ],
      "stateMutability": "view"
    },
    {
      "type": "function",
      "name": "MAX_HISTORY_SIZE",
      "inputs": [],
      "outputs": [
        {
          "name": "",
          "type": "uint8",
          "internalType": "uint8"
        }
      ],
      "stateMutability": "view"
    },
    {
      "type": "function",
      "name": "MAX_POSSIBLE_PAYOUT",
      "inputs": [],
      "outputs": [
        {
          "name": "",
          "type": "uint256",
          "internalType": "uint256"
        }
      ],
      "stateMutability": "view"
    },
    {
      "type": "function",
      "name": "MINTER_ROLE",
      "inputs": [],
      "outputs": [
        {
          "name": "",
          "type": "bytes32",
          "internalType": "bytes32"
        }
      ],
      "stateMutability": "view"
    },
    {
      "type": "function",
      "name": "RESULT_FORCE_STOPPED",
      "inputs": [],
      "outputs": [
        {
          "name": "",
          "type": "uint8",
          "internalType": "uint8"
        }
      ],
      "stateMutability": "view"
    },
    {
      "type": "function",
      "name": "RESULT_RECOVERED",
      "inputs": [],
      "outputs": [
        {
          "name": "",
          "type": "uint8",
          "internalType": "uint8"
        }
      ],
      "stateMutability": "view"
    },
    {
      "type": "function",
      "name": "TAILS",
      "inputs": [],
      "outputs": [
        {
          "name": "",
          "type": "uint8",
          "internalType": "uint8"
        }
      ],
      "stateMutability": "view"
    },
    {
      "type": "function",
      "name": "canStartNewGame",
      "inputs": [
        {
          "name": "player",
          "type": "address",
          "internalType": "address"
        }
      ],
      "outputs": [
        {
          "name": "",
          "type": "bool",
          "internalType": "bool"
        }
      ],
      "stateMutability": "view"
    },
    {
      "type": "function",
      "name": "flipCoin",
      "inputs": [
        {
          "name": "chosenSide",
          "type": "uint8",
          "internalType": "uint8"
        },
        {
          "name": "amount",
          "type": "uint256",
          "internalType": "uint256"
        }
      ],
      "outputs": [
        {
          "name": "requestId",
          "type": "uint256",
          "internalType": "uint256"
        }
      ],
      "stateMutability": "nonpayable"
    },
    {
      "type": "function",
      "name": "forceStopGame",
      "inputs": [
        {
          "name": "player",
          "type": "address",
          "internalType": "address"
        }
      ],
      "outputs": [],
      "stateMutability": "nonpayable"
    },
    {
      "type": "function",
      "name": "gamaToken",
      "inputs": [],
      "outputs": [
        {
          "name": "",
          "type": "address",
          "internalType": "contract IERC20"
        }
      ],
      "stateMutability": "view"
    },
    {
      "type": "function",
      "name": "getBetHistory",
      "inputs": [
        {
          "name": "player",
          "type": "address",
          "internalType": "address"
        }
      ],
      "outputs": [
        {
          "name": "",
          "type": "tuple[]",
          "internalType": "struct BetHistory[]",
          "components": [
            {
              "name": "chosenSide",
              "type": "uint8",
              "internalType": "uint8"
            },
            {
              "name": "flippedResult",
              "type": "uint8",
              "internalType": "uint8"
            },
            {
              "name": "timestamp",
              "type": "uint32",
              "internalType": "uint32"
            },
            {
              "name": "amount",
              "type": "uint256",
              "internalType": "uint256"
            },
            {
              "name": "payout",
              "type": "uint256",
              "internalType": "uint256"
            }
          ]
        }
      ],
      "stateMutability": "view"
    },
    {
      "type": "function",
      "name": "getGameStatus",
      "inputs": [
        {
          "name": "player",
          "type": "address",
          "internalType": "address"
        }
      ],
      "outputs": [
        {
          "name": "isActive",
          "type": "bool",
          "internalType": "bool"
        },
        {
          "name": "isWin",
          "type": "bool",
          "internalType": "bool"
        },
        {
          "name": "isCompleted",
          "type": "bool",
          "internalType": "bool"
        },
        {
          "name": "chosenSide",
          "type": "uint8",
          "internalType": "uint8"
        },
        {
          "name": "amount",
          "type": "uint256",
          "internalType": "uint256"
        },
        {
          "name": "result",
          "type": "uint8",
          "internalType": "uint8"
        },
        {
          "name": "payout",
          "type": "uint256",
          "internalType": "uint256"
        },
        {
          "name": "requestId",
          "type": "uint256",
          "internalType": "uint256"
        },
        {
          "name": "requestExists",
          "type": "bool",
          "internalType": "bool"
        },
        {
          "name": "requestProcessed",
          "type": "bool",
          "internalType": "bool"
        },
        {
          "name": "recoveryEligible",
          "type": "bool",
          "internalType": "bool"
        },
        {
          "name": "lastPlayTimestamp",
          "type": "uint256",
          "internalType": "uint256"
        }
      ],
      "stateMutability": "view"
    },
    {
      "type": "function",
      "name": "getPlayerForRequest",
      "inputs": [
        {
          "name": "requestId",
          "type": "uint256",
          "internalType": "uint256"
        }
      ],
      "outputs": [
        {
          "name": "",
          "type": "address",
          "internalType": "address"
        }
      ],
      "stateMutability": "view"
    },
    {
      "type": "function",
      "name": "getUserData",
      "inputs": [
        {
          "name": "player",
          "type": "address",
          "internalType": "address"
        }
      ],
      "outputs": [
        {
          "name": "gameState",
          "type": "tuple",
          "internalType": "struct GameState",
          "components": [
            {
              "name": "isActive",
              "type": "bool",
              "internalType": "bool"
            },
            {
              "name": "completed",
              "type": "bool",
              "internalType": "bool"
            },
            {
              "name": "chosenSide",
              "type": "uint8",
              "internalType": "uint8"
            },
            {
              "name": "result",
              "type": "uint8",
              "internalType": "uint8"
            },
            {
              "name": "amount",
              "type": "uint256",
              "internalType": "uint256"
            },
            {
              "name": "payout",
              "type": "uint256",
              "internalType": "uint256"
            }
          ]
        },
        {
          "name": "lastPlayed",
          "type": "uint256",
          "internalType": "uint256"
        }
      ],
      "stateMutability": "view"
    },
    {
      "type": "function",
      "name": "hasPendingRequest",
      "inputs": [
        {
          "name": "player",
          "type": "address",
          "internalType": "address"
        }
      ],
      "outputs": [
        {
          "name": "",
          "type": "bool",
          "internalType": "bool"
        }
      ],
      "stateMutability": "view"
    },
    {
      "type": "function",
      "name": "owner",
      "inputs": [],
      "outputs": [
        {
          "name": "",
          "type": "address",
          "internalType": "address"
        }
      ],
      "stateMutability": "view"
    },
    {
      "type": "function",
      "name": "pause",
      "inputs": [],
      "outputs": [],
      "stateMutability": "nonpayable"
    },
    {
      "type": "function",
      "name": "paused",
      "inputs": [],
      "outputs": [
        {
          "name": "",
          "type": "bool",
          "internalType": "bool"
        }
      ],
      "stateMutability": "view"
    },
    {
      "type": "function",
      "name": "rawFulfillRandomWords",
      "inputs": [
        {
          "name": "requestId",
          "type": "uint256",
          "internalType": "uint256"
        },
        {
          "name": "randomWords",
          "type": "uint256[]",
          "internalType": "uint256[]"
        }
      ],
      "outputs": [],
      "stateMutability": "nonpayable"
    },
    {
      "type": "function",
      "name": "recoverOwnStuckGame",
      "inputs": [],
      "outputs": [],
      "stateMutability": "nonpayable"
    },
    {
      "type": "function",
      "name": "renounceOwnership",
      "inputs": [],
      "outputs": [],
      "stateMutability": "nonpayable"
    },
    {
      "type": "function",
      "name": "s_requests",
      "inputs": [
        {
          "name": "",
          "type": "uint256",
          "internalType": "uint256"
        }
      ],
      "outputs": [
        {
          "name": "fulfilled",
          "type": "bool",
          "internalType": "bool"
        },
        {
          "name": "exists",
          "type": "bool",
          "internalType": "bool"
        }
      ],
      "stateMutability": "view"
    },
    {
      "type": "function",
      "name": "totalGamesPlayed",
      "inputs": [],
      "outputs": [
        {
          "name": "",
          "type": "uint256",
          "internalType": "uint256"
        }
      ],
      "stateMutability": "view"
    },
    {
      "type": "function",
      "name": "totalPayoutAmount",
      "inputs": [],
      "outputs": [
        {
          "name": "",
          "type": "uint256",
          "internalType": "uint256"
        }
      ],
      "stateMutability": "view"
    },
    {
      "type": "function",
      "name": "totalWageredAmount",
      "inputs": [],
      "outputs": [
        {
          "name": "",
          "type": "uint256",
          "internalType": "uint256"
        }
      ],
      "stateMutability": "view"
    },
    {
      "type": "function",
      "name": "transferOwnership",
      "inputs": [
        {
          "name": "newOwner",
          "type": "address",
          "internalType": "address"
        }
      ],
      "outputs": [],
      "stateMutability": "nonpayable"
    },
    {
      "type": "function",
      "name": "unpause",
      "inputs": [],
      "outputs": [],
      "stateMutability": "nonpayable"
    },
    {
      "type": "event",
      "name": "BetPlaced",
      "inputs": [
        {
          "name": "player",
          "type": "address",
          "indexed": true,
          "internalType": "address"
        },
        {
          "name": "requestId",
          "type": "uint256",
          "indexed": false,
          "internalType": "uint256"
        },
        {
          "name": "chosenSide",
          "type": "uint8",
          "indexed": false,
          "internalType": "uint8"
        },
        {
          "name": "amount",
          "type": "uint256",
          "indexed": false,
          "internalType": "uint256"
        }
      ],
      "anonymous": false
    },
    {
      "type": "event",
      "name": "GameCompleted",
      "inputs": [
        {
          "name": "player",
          "type": "address",
          "indexed": true,
          "internalType": "address"
        },
        {
          "name": "requestId",
          "type": "uint256",
          "indexed": false,
          "internalType": "uint256"
        },
        {
          "name": "result",
          "type": "uint8",
          "indexed": false,
          "internalType": "uint8"
        },
        {
          "name": "payout",
          "type": "uint256",
          "indexed": false,
          "internalType": "uint256"
        }
      ],
      "anonymous": false
    },
    {
      "type": "event",
      "name": "GameRecovered",
      "inputs": [
        {
          "name": "player",
          "type": "address",
          "indexed": true,
          "internalType": "address"
        },
        {
          "name": "requestId",
          "type": "uint256",
          "indexed": false,
          "internalType": "uint256"
        },
        {
          "name": "refundAmount",
          "type": "uint256",
          "indexed": false,
          "internalType": "uint256"
        }
      ],
      "anonymous": false
    },
    {
      "type": "event",
      "name": "OwnershipTransferred",
      "inputs": [
        {
          "name": "previousOwner",
          "type": "address",
          "indexed": true,
          "internalType": "address"
        },
        {
          "name": "newOwner",
          "type": "address",
          "indexed": true,
          "internalType": "address"
        }
      ],
      "anonymous": false
    },
    {
      "type": "event",
      "name": "Paused",
      "inputs": [
        {
          "name": "account",
          "type": "address",
          "indexed": false,
          "internalType": "address"
        }
      ],
      "anonymous": false
    },
    {
      "type": "event",
      "name": "Unpaused",
      "inputs": [
        {
          "name": "account",
          "type": "address",
          "indexed": false,
          "internalType": "address"
        }
      ],
      "anonymous": false
    },
    {
      "type": "error",
      "name": "BurnFailed",
      "inputs": [
        {
          "name": "account",
          "type": "address",
          "internalType": "address"
        },
        {
          "name": "amount",
          "type": "uint256",
          "internalType": "uint256"
        }
      ]
    },
    {
      "type": "error",
      "name": "EnforcedPause",
      "inputs": []
    },
    {
      "type": "error",
      "name": "ExpectedPause",
      "inputs": []
    },
    {
      "type": "error",
      "name": "GameError",
      "inputs": [
        {
          "name": "reason",
          "type": "string",
          "internalType": "string"
        }
      ]
    },
    {
      "type": "error",
      "name": "InsufficientAllowance",
      "inputs": [
        {
          "name": "required",
          "type": "uint256",
          "internalType": "uint256"
        },
        {
          "name": "allowed",
          "type": "uint256",
          "internalType": "uint256"
        }
      ]
    },
    {
      "type": "error",
      "name": "InsufficientUserBalance",
      "inputs": [
        {
          "name": "required",
          "type": "uint256",
          "internalType": "uint256"
        },
        {
          "name": "available",
          "type": "uint256",
          "internalType": "uint256"
        }
      ]
    },
    {
      "type": "error",
      "name": "InvalidBetParameters",
      "inputs": [
        {
          "name": "reason",
          "type": "string",
          "internalType": "string"
        }
      ]
    },
    {
      "type": "error",
      "name": "MaxPayoutExceeded",
      "inputs": [
        {
          "name": "potentialPayout",
          "type": "uint256",
          "internalType": "uint256"
        },
        {
          "name": "maxAllowed",
          "type": "uint256",
          "internalType": "uint256"
        }
      ]
    },
    {
      "type": "error",
      "name": "MintFailed",
      "inputs": [
        {
          "name": "account",
          "type": "address",
          "internalType": "address"
        },
        {
          "name": "amount",
          "type": "uint256",
          "internalType": "uint256"
        }
      ]
    },
    {
      "type": "error",
      "name": "MissingContractRole",
      "inputs": [
        {
          "name": "role",
          "type": "bytes32",
          "internalType": "bytes32"
        }
      ]
    },
    {
      "type": "error",
      "name": "OnlyCoordinatorCanFulfill",
      "inputs": [
        {
          "name": "have",
          "type": "address",
          "internalType": "address"
        },
        {
          "name": "want",
          "type": "address",
          "internalType": "address"
        }
      ]
    },
    {
      "type": "error",
      "name": "OwnableInvalidOwner",
      "inputs": [
        {
          "name": "owner",
          "type": "address",
          "internalType": "address"
        }
      ]
    },
    {
      "type": "error",
      "name": "OwnableUnauthorizedAccount",
      "inputs": [
        {
          "name": "account",
          "type": "address",
          "internalType": "address"
        }
      ]
    },
    {
      "type": "error",
      "name": "PayoutCalculationError",
      "inputs": [
        {
          "name": "message",
          "type": "string",
          "internalType": "string"
        }
      ]
    },
    {
      "type": "error",
      "name": "ReentrancyGuardReentrantCall",
      "inputs": []
    },
    {
      "type": "error",
      "name": "TransferFailed",
      "inputs": [
        {
          "name": "from",
          "type": "address",
          "internalType": "address"
        },
        {
          "name": "to",
          "type": "address",
          "internalType": "address"
        },
        {
          "name": "amount",
          "type": "uint256",
          "internalType": "uint256"
        }
      ]
    },
    {
      "type": "error",
      "name": "VRFError",
      "inputs": [
        {
          "name": "reason",
          "type": "string",
          "internalType": "string"
        }
      ]
    }
  ],
  "bytecode": {
    "object": "0x6101803461030457601f61378538819003918201601f19168301916001600160401b038311848410176103085780849260e094604052833981010312610304576100488161031c565b906100556020820161031c565b60408201519092906001600160401b03811681036103045760608301519060808401519263ffffffff8416908185036103045760a08601519561ffff871687036103045760c001519660ff8816908189036103045760015f558060805233156102f15760018054610100600160a81b0319811633600881811b610100600160a81b031692909217909355604051959291901c6001600160a01b03167f8be0079c531659141344cd1fd0a4f28419497f9722a3daafe3b4186f6b6457e05f80a36001600160a01b03169283156102af57506001600160a01b031692831561026a571561021b57156101d65760a05260c05260e052610100526101205261014052610160526040516134549081610331823960805181612505015260a051818181610366015281816111430152818161141001528181611b3f0152612da3015260c05181610701015260e0518161063f0152610100518161061001526101205181610695015261014051816106690152610160518181816106be0152612ad70152f35b60405162461bcd60e51b815260206004820152601e60248201527f4e756d626572206f6620776f7264732063616e6e6f74206265207a65726f00006044820152606490fd5b60405162461bcd60e51b815260206004820152602160248201527f43616c6c6261636b20676173206c696d69742063616e6e6f74206265207a65726044820152606f60f81b6064820152608490fd5b60405162461bcd60e51b815260206004820152601e60248201527f56524620636f6f7264696e61746f722063616e6e6f74206265207a65726f00006044820152606490fd5b62461bcd60e51b815260206004820152601c60248201527f546f6b656e20616464726573732063616e6e6f74206265207a65726f000000006044820152606490fd5b631e4fbdf760e01b5f525f60045260245ffd5b5f80fd5b634e487b7160e01b5f52604160045260245ffd5b51906001600160a01b03821682036103045756fe6080806040526004361015610012575f80fd5b5f905f3560e01c9081630424315114612605575080630c99375d146125a25780631995cec6146125875780631fe543e31461247e578063282c51f314612444578063309167f51461241f57806338f8bc6d146124045780633f4ba83a146123795780634689b441146123545780634ca1a8381461233957806354e4437e1461219657806357816f3e1461217b5780635bdb2e1b1461215e5780635c492129146121415780635c975abb1461211f5780635d424b85146120bb578063715018a61461203a5780638456cb5914611fd65780638da5cb5b14611fa0578063a168fa8914611f66578063a20ff9fc14611980578063b52a085514611275578063c106625114611259578063ce84a53b146111a2578063d539139314611167578063d56ec8c914611116578063e7efcfc2146110f8578063f2fde38b14611000578063f3b4d4cb146102d25763ffc9896b14610168575f80fd5b346102cf5760206003193601126102cf5760043573ffffffffffffffffffffffffffffffffffffffff81168091036102cd578160a06040516101a981612641565b8281528260208201528260408201528260608201528260808201520152801561026e578160409160e0935260026020522063ffffffff6005820154166040516101f181612641565b82549260ff8085161515948584528160208501818360081c16151581526040860190828460101c16825282606088019460181c16845260a0600260018801549760808a0198895201549701968752604051988952511515602089015251166040870152511660608501525160808401525160a083015260c0820152f35b6040517f34460f4100000000000000000000000000000000000000000000000000000000815260206004820152601660248201527f496e76616c696420706c617965722061646472657373000000000000000000006044820152606490fd5b505b80fd5b50346102cf5760406003193601126102cf576004359060ff8216918281036102cd57602435906103006132ee565b610308613325565b8115610fa2576a084595161401484a0000008211610f4457600184141580610f39575b610eb5573383526002602052604083209060ff825416610e5757600382018054610df95773ffffffffffffffffffffffffffffffffffffffff7f0000000000000000000000000000000000000000000000000000000000000000166040517f70a08231000000000000000000000000000000000000000000000000000000008152336004820152602081602481855afa908115610bae579086918891610dc4575b5010610d19576040517fdd62ed3e000000000000000000000000000000000000000000000000000000008152336004820152306024820152602081604481855afa908115610bae579086918891610ce4575b5010610c24576040517f91d148540000000000000000000000000000000000000000000000000000000081527f3c11d16cbaffd01df69ce1c404f6340ee057498f5f00246190ea54220576a8486004820152306024820152602081604481855afa908115610bae578791610c05575b5015610bb9576040517f91d148540000000000000000000000000000000000000000000000000000000081527f9f2df0fed2c77648de5860a4cc508cd0818c85b8b8a1ab4ceeef8d981c8956a66004820152306024820152602081604481855afa908115610bae578791610b7f575b5015610b33578460011b858104600203610b0657857f7fffffffffffffffffffffffffffffffffffffffffffffffffffffffffffffff811603610aa8576a108b2a2c280290940000008111610a6e5750803b15610a6a576040517f9dc29fac0000000000000000000000000000000000000000000000000000000081523360048201526024810186905290869081908390604490829084905af19182610a55575b50506105d357604485857f016f84a100000000000000000000000000000000000000000000000000000000825233600452602452fd5b93929091936105e4826005546126ff565b600555604051947f5d3b1d300000000000000000000000000000000000000000000000000000000086527f0000000000000000000000000000000000000000000000000000000000000000600487015267ffffffffffffffff7f000000000000000000000000000000000000000000000000000000000000000016602487015261ffff7f000000000000000000000000000000000000000000000000000000000000000016604487015263ffffffff7f000000000000000000000000000000000000000000000000000000000000000016606487015260ff7f000000000000000000000000000000000000000000000000000000000000000016608487015260208660a4818873ffffffffffffffffffffffffffffffffffffffff7f0000000000000000000000000000000000000000000000000000000000000000165af1958615610a4a578596610a12575b5060209660405161074289826126a6565b8681525f3681376040516060810181811067ffffffffffffffff8211176109e557906001916040528881528a8101828152604082019384528a8a5260068c5260408a209151151560ff60ff19845416911515161782555115157fffffffffffffffffffffffffffffffffffffffffffffffffffffffffffff00ff61ff00835492151560081b1691161781550190519081519167ffffffffffffffff83116109e55791818b80946107f6848e9a999896612755565b01908a52838a208a5b8381106109ce575050505092876002819897948260a089966109c2997f1efa8a4db358fbd4b3e1004cca7c5a1bdc9de3512d3392d48a51d1961316f9839b60019f526007825260408420337fffffffffffffffffffffffff000000000000000000000000000000000000000082541617905588845260088252604084208f60ff198254161790556005850163ffffffff42167fffffffffffffffffffffffffffffffffffffffffffffffffffffffff00000000825416179055436006860155600785017fffffffffffffffffffffffffffffffffffffffffffffffffffffffffffff00ff815416905583604051926108f684612641565b60018452830152604082015282606082015288608082015201528a60ff198254161781557fffffffffffffffffffffffffffffffffffffffffffffffffffffffffffff00ff815416815580547fffffffffffffffffffffffffffffffffffffffffffffffffffffffffff00ffff62ff00008b60101b1691161781557fffffffffffffffffffffffffffffffffffffffffffffffffffffffff00ffffff8154168155858b8201550155556040519182913395898460ff604092959493606083019683521660208201520152565b0390a255604051908152f35b8251818301558c98508d95909201916001016107ff565b6024897f4e487b710000000000000000000000000000000000000000000000000000000081526041600452fd5b9095506020813d602011610a42575b81610a2e602093836126a6565b81010312610a3e5751945f610731565b5f80fd5b3d9150610a21565b6040513d87823e3d90fd5b81610a5f916126a6565b610a6a57855f61059d565b8580fd5b7f21e510be0000000000000000000000000000000000000000000000000000000087526004526a108b2a2c28029094000000602452604486fd5b60646040517f327512f600000000000000000000000000000000000000000000000000000000815260206004820152601b60248201527f5061796f75742063616c63756c6174696f6e206f766572666c6f7700000000006044820152fd5b6024877f4e487b710000000000000000000000000000000000000000000000000000000081526011600452fd5b6024867fb3eebf6e0000000000000000000000000000000000000000000000000000000081527f9f2df0fed2c77648de5860a4cc508cd0818c85b8b8a1ab4ceeef8d981c8956a6600452fd5b610ba1915060203d602011610ba7575b610b9981836126a6565b81019061279a565b5f6104fc565b503d610b8f565b6040513d89823e3d90fd5b6024867fb3eebf6e0000000000000000000000000000000000000000000000000000000081527f3c11d16cbaffd01df69ce1c404f6340ee057498f5f00246190ea54220576a848600452fd5b610c1e915060203d602011610ba757610b9981836126a6565b5f61048d565b6040517fdd62ed3e0000000000000000000000000000000000000000000000000000000081523360048201523060248201529086908690602090849060449082905afa908115610cd9578291610ca4575b604493507f2a1b2dd8000000000000000000000000000000000000000000000000000000008352600452602452fd5b90506020833d602011610cd1575b81610cbf602093836126a6565b81010312610a3e576044925190610c75565b3d9150610cb2565b6040513d84823e3d90fd5b9150506020813d602011610d11575b81610d00602093836126a6565b81010312610a3e578590515f61041e565b3d9150610cf3565b85856020602493604051948580927f70a082310000000000000000000000000000000000000000000000000000000082523360048301525afa908115610cd9578291610d8f575b604493507f5f504d20000000000000000000000000000000000000000000000000000000008352600452602452fd5b90506020833d602011610dbc575b81610daa602093836126a6565b81010312610a3e576044925190610d60565b3d9150610d9d565b9150506020813d602011610df1575b81610de0602093836126a6565b81010312610a3e578590515f6103cc565b3d9150610dd3565b60646040517f13b419a900000000000000000000000000000000000000000000000000000000815260206004820152601a60248201527f557365722068617320612070656e64696e6720726571756573740000000000006044820152fd5b60646040517f13b419a900000000000000000000000000000000000000000000000000000000815260206004820152601760248201527f557365722068617320616e206163746976652067616d650000000000000000006044820152fd5b60846040517f34460f4100000000000000000000000000000000000000000000000000000000815260206004820152603860248201527f496e76616c69642063686f73656e207369646520286d7573742062652031206660448201527f6f72204845414453206f72203220666f72205441494c532900000000000000006064820152fd5b50600284141561032b565b60646040517f34460f4100000000000000000000000000000000000000000000000000000000815260206004820152601460248201527f42657420616d6f756e7420746f6f206c617267650000000000000000000000006044820152fd5b60646040517f34460f4100000000000000000000000000000000000000000000000000000000815260206004820152601960248201527f42657420616d6f756e742063616e6e6f74206265207a65726f000000000000006044820152fd5b50346102cf5760206003193601126102cf5760043573ffffffffffffffffffffffffffffffffffffffff8116908181036110f45761103c61329e565b81156110c85773ffffffffffffffffffffffffffffffffffffffff9074ffffffffffffffffffffffffffffffffffffffff006001549160081b167fffffffffffffffffffffff0000000000000000000000000000000000000000ff82161760015560081c167f8be0079c531659141344cd1fd0a4f28419497f9722a3daafe3b4186f6b6457e08380a380f35b6024837f1e4fbdf700000000000000000000000000000000000000000000000000000000815280600452fd5b8280fd5b50346102cf57806003193601126102cf576020600454604051908152f35b50346102cf57806003193601126102cf57602060405173ffffffffffffffffffffffffffffffffffffffff7f0000000000000000000000000000000000000000000000000000000000000000168152f35b50346102cf57806003193601126102cf5760206040517f9f2df0fed2c77648de5860a4cc508cd0818c85b8b8a1ab4ceeef8d981c8956a68152f35b50346102cf5760206003193601126102cf5760043573ffffffffffffffffffffffffffffffffffffffff811681036102cd576111dd9061285f565b90604051918291602083016020845282518091526020604085019301915b818110611209575050500390f35b91935091602060a06001926080875160ff815116835260ff85820151168584015263ffffffff604082015116604084015260608101516060840152015160808201520194019101918493926111fb565b50346102cf57806003193601126102cf576020604051600a8152f35b50346102cf5760206003193601126102cf576004359073ffffffffffffffffffffffffffffffffffffffff8216918281036102cd576112b261329e565b6112ba6132ee565b8282526002602052604082209260ff8454161561192157600384019182549485151580809161190b575b806118f2575b61186d57600682015461012c8101809111610b065743118163ffffffff6113168160058701541661270c565b16421181611853575b82159261184a575b508115611841575b506117be57600182015494851561175f5786916116fa575b82547fffffffffffffffffffffffffffffffffffffffffffffffffffffffff00ff00001663fe00010017835560028301869055556007810180547fffffffffffffffffffffffffffffffffffffffffffffffffffffffffffff00ff1681556040517f91d148540000000000000000000000000000000000000000000000000000000081527f9f2df0fed2c77648de5860a4cc508cd0818c85b8b8a1ab4ceeef8d981c8956a66004820152306024820152909273ffffffffffffffffffffffffffffffffffffffff7f00000000000000000000000000000000000000000000000000000000000000001691602081604481865afa9081156116ef5788916116d0575b501561168457813b15611680576040517f40c10f1900000000000000000000000000000000000000000000000000000000815273ffffffffffffffffffffffffffffffffffffffff9190911660048201526024810186905290869081908390604490829084905af1918261166b575b50506114ee575050604493507f5c0b206f000000000000000000000000000000000000000000000000000000008352600452602452fd5b9492919394600460ff825460101c16916040519261150b8461268a565b835260fe602084015263ffffffff421660408401528460608401528460808401520190600a8254105f146115df578154680100000000000000008110156115b25760ff600a604096946115927ff43f4cfd330c9814ec89dcb330ca1c7559745bb35a6ea4068b171116c4ea3d5399979561158c8660018798018555846127bf565b90613359565b5406161660ff198254161790555b82519182526020820152a26001815580f35b6024887f4e487b710000000000000000000000000000000000000000000000000000000081526041600452fd5b61158c6115f19260ff855416906127bf565b600160ff8254160160ff811161163e57917ff43f4cfd330c9814ec89dcb330ca1c7559745bb35a6ea4068b171116c4ea3d53939160ff600a8160409616061660ff198254161790556115a0565b6024867f4e487b710000000000000000000000000000000000000000000000000000000081526011600452fd5b81611675916126a6565b610a6a57855f6114b7565b8680fd5b6024877fb3eebf6e0000000000000000000000000000000000000000000000000000000081527f9f2df0fed2c77648de5860a4cc508cd0818c85b8b8a1ab4ceeef8d981c8956a6600452fd5b6116e9915060203d602011610ba757610b9981836126a6565b5f611448565b6040513d8a823e3d90fd5b8782526007602052604082207fffffffffffffffffffffffff0000000000000000000000000000000000000000815416905587825260086020526040822060ff198154169055878252600660205261175a60016040842084815501612725565b611347565b6040517f13b419a900000000000000000000000000000000000000000000000000000000815260206004820152601160248201527f4e6f7468696e6720746f20726566756e640000000000000000000000000000006044820152606490fd5b60846040517f13b419a9000000000000000000000000000000000000000000000000000000008152602060048201526024808201527f47616d65206e6f7420656c696769626c6520666f7220666f7263652073746f7060448201527f20796574000000000000000000000000000000000000000000000000000000006064820152fd5b9050155f61132f565b1591505f611327565b8989526006602052604089205460081c60ff16915061131f565b6040517f13b419a900000000000000000000000000000000000000000000000000000000815260206004820152602860248201527f52657175657374206a7573742066756c66696c6c65642c206c6574205652462060448201527f636f6d706c6574650000000000000000000000000000000000000000000000006064820152608490fd5b506006820154600a8101809111610b06574311156112ea565b50868652600660205260ff6040872054166112e4565b6040517f13b419a900000000000000000000000000000000000000000000000000000000815260206004820152600e60248201527f4e6f206163746976652067616d650000000000000000000000000000000000006044820152606490fd5b5034610a3e575f600319360112610a3e576119996132ee565b6119a1613325565b335f52600260205260405f209060ff8254161561192157600382018054928315611f0857835f52600660205260ff60405f20541680611eef575b61186d57600681015461012c8101809111611ec257431163ffffffff611a068160058501541661270c565b164211855f52600660205260ff60405f205460081c1690821592611eb9575b508115611eb0575b50611e2c57600181015491821561175f575f908582526006602052611a5a60016040842084815501612725565b8582526007602052604082207fffffffffffffffffffffffff0000000000000000000000000000000000000000815416905585825260086020526040822060ff1981541690556101007fffffffffffffffffffffffffffffffffffffffffffffffffffffffffffff000084541617835563ff0000007fffffffffffffffffffffffffffffffffffffffffffffffffffffffff00ffffff8454161783558360028401555560078101907fffffffffffffffffffffffffffffffffffffffffffffffffffffffffffff00ff825416825573ffffffffffffffffffffffffffffffffffffffff7f0000000000000000000000000000000000000000000000000000000000000000166040517f91d148540000000000000000000000000000000000000000000000000000000081527f9f2df0fed2c77648de5860a4cc508cd0818c85b8b8a1ab4ceeef8d981c8956a66004820152306024820152602081604481855afa908115611e21575f91611e02575b5015611db657803b15610a3e576040517f40c10f1900000000000000000000000000000000000000000000000000000000815233600482015260248101859052905f908290604490829084905af19081611da1575b50611c5257604484847f5c0b206f00000000000000000000000000000000000000000000000000000000825233600452602452fd5b939293600460ff825460101c169160405192611c6d8461268a565b835260ff602084015263ffffffff421660408401528460608401528460808401520190600a8254105f14611d3b57815468010000000000000000811015611d0e5760ff92611cc8849361158c846001600a96018555846127bf565b5406161660ff198254161790555b60405191825260208201527ff43f4cfd330c9814ec89dcb330ca1c7559745bb35a6ea4068b171116c4ea3d5360403392a26001815580f35b6024877f4e487b710000000000000000000000000000000000000000000000000000000081526041600452fd5b61158c611d4d9260ff855416906127bf565b600160ff8254160160ff8111611d7457600a60ff809216061660ff19825416179055611cd6565b6024857f4e487b710000000000000000000000000000000000000000000000000000000081526011600452fd5b611dae9195505f906126a6565b5f935f611c1d565b7fb3eebf6e000000000000000000000000000000000000000000000000000000005f527f9f2df0fed2c77648de5860a4cc508cd0818c85b8b8a1ab4ceeef8d981c8956a660045260245ffd5b611e1b915060203d602011610ba757610b9981836126a6565b5f611bc8565b6040513d5f823e3d90fd5b60846040517f13b419a900000000000000000000000000000000000000000000000000000000815260206004820152602260248201527f47616d65206e6f7420656c696769626c6520666f72207265636f76657279207960448201527f65740000000000000000000000000000000000000000000000000000000000006064820152fd5b9050155f611a2d565b1591505f611a25565b7f4e487b71000000000000000000000000000000000000000000000000000000005f52601160045260245ffd5b506006810154600a8101809111611ec2574311156119db565b60646040517f13b419a900000000000000000000000000000000000000000000000000000000815260206004820152601d60248201527f4e6f2070656e64696e67207265717565737420746f207265636f7665720000006044820152fd5b34610a3e576020600319360112610a3e576004355f5260066020526040805f205460ff8251918181161515835260081c1615156020820152f35b34610a3e575f600319360112610a3e57602073ffffffffffffffffffffffffffffffffffffffff60015460081c16604051908152f35b34610a3e575f600319360112610a3e57611fee61329e565b611ff66132ee565b611ffe613325565b600160ff19815416176001557f62e78cea01bee320cd4e420270b5ea74000d11b0c9f74754ebdbfc544b05a2586020604051338152a160015f55005b34610a3e575f600319360112610a3e5761205261329e565b5f73ffffffffffffffffffffffffffffffffffffffff6001547fffffffffffffffffffffff0000000000000000000000000000000000000000ff811660015560081c167f8be0079c531659141344cd1fd0a4f28419497f9722a3daafe3b4186f6b6457e08280a3005b34610a3e576020600319360112610a3e5760043573ffffffffffffffffffffffffffffffffffffffff8116809103610a3e575f526002602052602060405f2060ff815416159081612112575b506040519015158152f35b6003915001541582612107565b34610a3e575f600319360112610a3e57602060ff600154166040519015158152f35b34610a3e575f600319360112610a3e576020600354604051908152f35b34610a3e575f600319360112610a3e576020600554604051908152f35b34610a3e575f600319360112610a3e57602060405160ff8152f35b34610a3e576020600319360112610a3e5760043573ffffffffffffffffffffffffffffffffffffffff8116809103610a3e57801561026e575f52600260205260405f2080549060ff821660018201549260ff8160181c1692600281015491600382015463ffffffff600584015416938015159687612314575b8697985f979697945f9685151590816122f2575b5f9961228c575b505060ff906101809b6040519b15158c52151560208c0152818160081c16151560408c015260101c1660608a0152608089015260a088015260c087015260e0860152151561010085015215156101208401521515610140830152610160820152f35b6006919c995001549061012c8201809211611ec2576101809b60ff9243119063ffffffff6122b98d61270c565b164211816122ea575b826122e2575b50816122da575b50989b81925061222a565b90508d6122cf565b91508e6122c8565b8991506122c2565b97509550845f52600660205260405f20549560ff808860081c16971697612223565b86975060018197969714801561232f575b975095949561220f565b5060028114612325565b34610a3e575f600319360112610a3e57602060405160028152f35b34610a3e575f600319360112610a3e5760206040516a108b2a2c280290940000008152f35b34610a3e575f600319360112610a3e5761239161329e565b6123996132ee565b60015460ff8116156123dc5760ff19166001557f5db9ee0a495bf2e6ff9c91a7834c1ba4fdd244a5e8aa4e537bd38aeae4b073aa6020604051338152a160015f55005b7f8dfc202b000000000000000000000000000000000000000000000000000000005f5260045ffd5b34610a3e575f600319360112610a3e57602060405160fe8152f35b34610a3e575f600319360112610a3e5760206040516a084595161401484a0000008152f35b34610a3e575f600319360112610a3e5760206040517f3c11d16cbaffd01df69ce1c404f6340ee057498f5f00246190ea54220576a8488152f35b34610a3e576040600319360112610a3e5760243567ffffffffffffffff8111610a3e5736602382011215610a3e578060040135906124bb826126e7565b916124c960405193846126a6565b8083526024602084019160051b83010191368311610a3e57602401905b828210612577578373ffffffffffffffffffffffffffffffffffffffff7f0000000000000000000000000000000000000000000000000000000000000000169081330361254757612541906125396132ee565b600435612aac565b60015f55005b507f1cf993f4000000000000000000000000000000000000000000000000000000005f523360045260245260445ffd5b81358152602091820191016124e6565b34610a3e575f600319360112610a3e57602060405160018152f35b34610a3e576020600319360112610a3e5760043573ffffffffffffffffffffffffffffffffffffffff8116809103610a3e575f526002602052602060405f2060ff81541690816125f757506040519015158152f35b600391500154151582612107565b34610a3e576020600319360112610a3e576020906004355f526007825273ffffffffffffffffffffffffffffffffffffffff60405f2054168152f35b60c0810190811067ffffffffffffffff82111761265d57604052565b7f4e487b71000000000000000000000000000000000000000000000000000000005f52604160045260245ffd5b60a0810190811067ffffffffffffffff82111761265d57604052565b90601f7fffffffffffffffffffffffffffffffffffffffffffffffffffffffffffffffe0910116810190811067ffffffffffffffff82111761265d57604052565b67ffffffffffffffff811161265d5760051b60200190565b91908201809211611ec257565b63ffffffff610e109116019063ffffffff8211611ec257565b8054905f815581612734575050565b5f5260205f20908101905b81811061274a575050565b5f815560010161273f565b9068010000000000000000811161265d5781549181815582821061277857505050565b5f5260205f2091820191015b81811061278f575050565b5f8155600101612784565b90816020910312610a3e57518015158103610a3e5790565b91908203918211611ec257565b80548210156127d8575f52600360205f20910201905f90565b7f4e487b71000000000000000000000000000000000000000000000000000000005f52603260045260245ffd5b80518210156127d85760209160051b010190565b906040516128268161268a565b60806002829463ffffffff815460ff8116865260ff8160081c16602087015260101c166040850152600181015460608501520154910152565b73ffffffffffffffffffffffffffffffffffffffff60609116801561026e575f52600260205260405f2090600482018054918215612a515750600a821115612a4a57600a925b7fffffffffffffffffffffffffffffffffffffffffffffffffffffffffffffffe06128e86128d2866126e7565b956128e060405197886126a6565b8087526126e7565b015f5b818110612a15575050600a83101561297557507fffffffffffffffffffffffffffffffffffffffffffffffffffffffffffffffff82018281115f5b84811061293557505050505090565b81611ec2578061295961295361294d600194876127b2565b876127bf565b50612819565b6129638289612805565b5261296e8188612805565b5001612926565b6007015490915060ff16806129e3575060ff60095b16905f91600a8101809111925b600a81106129a6575050505090565b83611ec257806129c7612953600a6129c0600195876127b2565b06866127bf565b6129d18288612805565b526129dc8187612805565b5001612997565b7fffffffffffffffffffffffffffffffffffffffffffffffffffffffffffffffff0160ff8111611ec25760ff9061298a565b602090604051612a248161268a565b5f81525f838201525f60408201525f60608201525f6080820152828289010152016128eb565b81926128a5565b9250505060405190612a646020836126a6565b5f82525f90815b828110612a785750505090565b602090604051612a878161268a565b5f81525f838201525f60408201525f848201525f608082015282828701015201612a6b565b5f815f52600660205260405f209182549160ff8360081c16156132405760ff83166131e257845160ff7f0000000000000000000000000000000000000000000000000000000000000000160361318457815f52600760205273ffffffffffffffffffffffffffffffffffffffff60405f20541693841561312557845f52600260205260405f20936003850191848354036130c757600160ff1981931617815501865167ffffffffffffffff811161265d57612b678183612755565b6020880180925f5260205f205f5b8381106130b3575050505060078501906101007fffffffffffffffffffffffffffffffffffffffffffffffffffffffffffff00ff83541617825560ff865416156130225760ff865460101c169060018701549851156127d8578060019150511660018101809111611ec25760ff16955f98878314612f5b575b81547fffffffffffffffffffffffffffffffffffffffffffffffffffffffff00ff000016601889901b63ff0000001617610100178255600282018a9055604051926004929190612c3d8561268a565b845288602085015263ffffffff4216604085015260608401528960808401520190600a8254105f14612f22578154906801000000000000000082101561265d5760ff92612c97600a9261158c8560018897018555846127bf565b5406161660ff198254161781555b5f8715159283612f0e575b8582526007602052604082207fffffffffffffffffffffffff0000000000000000000000000000000000000000815416905585825260086020526040822060ff1981541690558582526006602052612d1060016040842084815501612725565b557fffffffffffffffffffffffffffffffffffffffffffffffffffffffffffff00ff8154169055612d88575b50612d837fc74777e2214d32e7b4952c2ecbbfc0ec7dc3642e448c3c927261cb69d9f0365093946040519384938460ff604092959493606083019683521660208201520152565b0390a2565b9392919073ffffffffffffffffffffffffffffffffffffffff7f0000000000000000000000000000000000000000000000000000000000000000166040517f91d148540000000000000000000000000000000000000000000000000000000081527f9f2df0fed2c77648de5860a4cc508cd0818c85b8b8a1ab4ceeef8d981c8956a66004820152306024820152602081604481855afa908115611e21575f91612eef575b5015611db657803b15610a3e576040517f40c10f1900000000000000000000000000000000000000000000000000000000815273ffffffffffffffffffffffffffffffffffffffff8516600482015260248101869052905f908290604490829084905af19081612eda575b50612ecd575050604493507f5c0b206f000000000000000000000000000000000000000000000000000000008352600452602452fd5b9293509091612d83612d3c565b612ee79196505f906126a6565b5f945f612e97565b612f08915060203d602011610ba757610b9981836126a6565b5f612e2c565b612f1a896004546126ff565b600455612cb0565b61158c612f349260ff855416906127bf565b600160ff8254160160ff8111611ec257600a60ff809216061660ff19825416178155612ca5565b98507f7fffffffffffffffffffffffffffffffffffffffffffffffffffffffffffffff8911612f9e578860011b908982046002148a151715611ec2579098612bee565b60846040517f327512f600000000000000000000000000000000000000000000000000000000815260206004820152602b60248201527f42657420616d6f756e7420746f6f206c6172676520666f72207061796f75742060448201527f63616c63756c6174696f6e0000000000000000000000000000000000000000006064820152fd5b5095509250505f9250808352600660205261304560016040852085815501612725565b8083526007602052604083207fffffffffffffffffffffffff00000000000000000000000000000000000000008154169055825260086020526040822060ff198154169055557fffffffffffffffffffffffffffffffffffffffffffffffffffffffffffff00ff8154169055565b600190602084519401938184015501612b75565b60646040517f13b419a900000000000000000000000000000000000000000000000000000000815260206004820152601360248201527f52657175657374204944206d69736d61746368000000000000000000000000006044820152fd5b6040517f1726a07e00000000000000000000000000000000000000000000000000000000815260206004820152601660248201527f496e76616c696420706c617965722061646472657373000000000000000000006044820152606490fd5b60646040517f1726a07e00000000000000000000000000000000000000000000000000000000815260206004820152601b60248201527f496e76616c69642072616e646f6d20776f726473206c656e67746800000000006044820152fd5b60646040517f1726a07e00000000000000000000000000000000000000000000000000000000815260206004820152601960248201527f5265717565737420616c72656164792066756c66696c6c6564000000000000006044820152fd5b60646040517f1726a07e00000000000000000000000000000000000000000000000000000000815260206004820152601160248201527f52657175657374206e6f7420666f756e640000000000000000000000000000006044820152fd5b73ffffffffffffffffffffffffffffffffffffffff60015460081c1633036132c257565b7f118cdaa7000000000000000000000000000000000000000000000000000000005f523360045260245ffd5b60025f54146132fd5760025f55565b7f3ee5aeb5000000000000000000000000000000000000000000000000000000005f5260045ffd5b60ff6001541661333157565b7fd93c0665000000000000000000000000000000000000000000000000000000005f5260045ffd5b91906133f25760808160ff8060029451161660ff19855416178455602081015161ff0085549160081b16807fffffffffffffffffffffffffffffffffffffffffffffffffffffffffffff00ff83161786557fffffffffffffffffffffffffffffffffffffffffffffffffffff0000000000ff65ffffffff0000604085015160101b16921617178455606081015160018501550151910155565b7f4e487b71000000000000000000000000000000000000000000000000000000005f525f60045260245ffdfea264697066735822122068b88cb5d090ce018fc7b1760426ac0b54517be9ae85b2edca1aaf71eedd031c64736f6c634300081c0033",
    "linkReferences": {}
  },
  "methodIdentifiers": {
    "BURNER_ROLE()": "282c51f3",
    "HEADS()": "1995cec6",
    "MAX_BET_AMOUNT()": "309167f5",
    "MAX_HISTORY_SIZE()": "c1066251",
    "MAX_POSSIBLE_PAYOUT()": "4689b441",
    "MINTER_ROLE()": "d5391393",
    "RESULT_FORCE_STOPPED()": "38f8bc6d",
    "RESULT_RECOVERED()": "57816f3e",
    "TAILS()": "4ca1a838",
    "canStartNewGame(address)": "5d424b85",
    "flipCoin(uint8,uint256)": "f3b4d4cb",
    "forceStopGame(address)": "b52a0855",
    "gamaToken()": "d56ec8c9",
    "getBetHistory(address)": "ce84a53b",
    "getGameStatus(address)": "54e4437e",
    "getPlayerForRequest(uint256)": "04243151",
    "getUserData(address)": "ffc9896b",
    "hasPendingRequest(address)": "0c99375d",
    "owner()": "8da5cb5b",
    "pause()": "8456cb59",
    "paused()": "5c975abb",
    "rawFulfillRandomWords(uint256,uint256[])": "1fe543e3",
    "recoverOwnStuckGame()": "a20ff9fc",
    "renounceOwnership()": "715018a6",
    "s_requests(uint256)": "a168fa89",
    "totalGamesPlayed()": "5c492129",
    "totalPayoutAmount()": "e7efcfc2",
    "totalWageredAmount()": "5bdb2e1b",
    "transferOwnership(address)": "f2fde38b",
    "unpause()": "3f4ba83a"
  },
  "id": 44
}