{
  "abi": [
    {
      "type": "constructor",
      "inputs": [
        {
          "name": "_gamaTokenAddress",
          "type": "address",
          "internalType": "address"
        },
        {
          "name": "vrfCoordinator",
          "type": "address",
          "internalType": "address"
        },
        {
          "name": "subscriptionId",
          "type": "uint64",
          "internalType": "uint64"
        },
        {
          "name": "keyHash",
          "type": "bytes32",
          "internalType": "bytes32"
        },
        {
          "name": "_callbackGasLimit",
          "type": "uint32",
          "internalType": "uint32"
        },
        {
          "name": "_requestConfirmations",
          "type": "uint16",
          "internalType": "uint16"
        },
        {
          "name": "_numWords",
          "type": "uint8",
          "internalType": "uint8"
        }
      ],
      "stateMutability": "nonpayable"
    },
    {
      "type": "function",
      "name": "HEADS",
      "inputs": [],
      "outputs": [
        {
          "name": "",
          "type": "uint8",
          "internalType": "uint8"
        }
      ],
      "stateMutability": "view"
    },
    {
      "type": "function",
      "name": "MAX_BET_AMOUNT",
      "inputs": [],
      "outputs": [
        {
          "name": "",
          "type": "uint256",
          "internalType": "uint256"
        }
      ],
      "stateMutability": "view"
    },
    {
      "type": "function",
      "name": "MAX_HISTORY_SIZE",
      "inputs": [],
      "outputs": [
        {
          "name": "",
          "type": "uint8",
          "internalType": "uint8"
        }
      ],
      "stateMutability": "view"
    },
    {
      "type": "function",
      "name": "MAX_POSSIBLE_PAYOUT",
      "inputs": [],
      "outputs": [
        {
          "name": "",
          "type": "uint256",
          "internalType": "uint256"
        }
      ],
      "stateMutability": "view"
    },
    {
      "type": "function",
      "name": "RESULT_FORCE_STOPPED",
      "inputs": [],
      "outputs": [
        {
          "name": "",
          "type": "uint8",
          "internalType": "uint8"
        }
      ],
      "stateMutability": "view"
    },
    {
      "type": "function",
      "name": "RESULT_RECOVERED",
      "inputs": [],
      "outputs": [
        {
          "name": "",
          "type": "uint8",
          "internalType": "uint8"
        }
      ],
      "stateMutability": "view"
    },
    {
      "type": "function",
      "name": "TAILS",
      "inputs": [],
      "outputs": [
        {
          "name": "",
          "type": "uint8",
          "internalType": "uint8"
        }
      ],
      "stateMutability": "view"
    },
    {
      "type": "function",
      "name": "activePlayerIndex",
      "inputs": [
        {
          "name": "",
          "type": "address",
          "internalType": "address"
        }
      ],
      "outputs": [
        {
          "name": "",
          "type": "uint256",
          "internalType": "uint256"
        }
      ],
      "stateMutability": "view"
    },
    {
      "type": "function",
      "name": "activePlayers",
      "inputs": [
        {
          "name": "",
          "type": "uint256",
          "internalType": "uint256"
        }
      ],
      "outputs": [
        {
          "name": "",
          "type": "address",
          "internalType": "address"
        }
      ],
      "stateMutability": "view"
    },
    {
      "type": "function",
      "name": "canStartNewGame",
      "inputs": [
        {
          "name": "player",
          "type": "address",
          "internalType": "address"
        }
      ],
      "outputs": [
        {
          "name": "",
          "type": "bool",
          "internalType": "bool"
        }
      ],
      "stateMutability": "view"
    },
    {
      "type": "function",
      "name": "flipCoin",
      "inputs": [
        {
          "name": "chosenSide",
          "type": "uint8",
          "internalType": "uint8"
        },
        {
          "name": "amount",
          "type": "uint256",
          "internalType": "uint256"
        }
      ],
      "outputs": [
        {
          "name": "requestId",
          "type": "uint256",
          "internalType": "uint256"
        }
      ],
      "stateMutability": "nonpayable"
    },
    {
      "type": "function",
      "name": "forceStopGame",
      "inputs": [
        {
          "name": "player",
          "type": "address",
          "internalType": "address"
        }
      ],
      "outputs": [],
      "stateMutability": "nonpayable"
    },
    {
      "type": "function",
      "name": "gamaToken",
      "inputs": [],
      "outputs": [
        {
          "name": "",
          "type": "address",
          "internalType": "contract IERC20"
        }
      ],
      "stateMutability": "view"
    },
    {
      "type": "function",
      "name": "getActivePlayers",
      "inputs": [
        {
          "name": "offset",
          "type": "uint256",
          "internalType": "uint256"
        },
        {
          "name": "limit",
          "type": "uint256",
          "internalType": "uint256"
        }
      ],
      "outputs": [
        {
          "name": "players",
          "type": "address[]",
          "internalType": "address[]"
        },
        {
          "name": "total",
          "type": "uint256",
          "internalType": "uint256"
        }
      ],
      "stateMutability": "view"
    },
    {
      "type": "function",
      "name": "getBetHistory",
      "inputs": [
        {
          "name": "player",
          "type": "address",
          "internalType": "address"
        }
      ],
      "outputs": [
        {
          "name": "",
          "type": "tuple[]",
          "internalType": "struct BetHistory[]",
          "components": [
            {
              "name": "chosenSide",
              "type": "uint8",
              "internalType": "uint8"
            },
            {
              "name": "flippedResult",
              "type": "uint8",
              "internalType": "uint8"
            },
            {
              "name": "timestamp",
              "type": "uint32",
              "internalType": "uint32"
            },
            {
              "name": "amount",
              "type": "uint256",
              "internalType": "uint256"
            },
            {
              "name": "payout",
              "type": "uint256",
              "internalType": "uint256"
            }
          ]
        }
      ],
      "stateMutability": "view"
    },
    {
      "type": "function",
      "name": "getGameStatus",
      "inputs": [
        {
          "name": "player",
          "type": "address",
          "internalType": "address"
        }
      ],
      "outputs": [
        {
          "name": "isActive",
          "type": "bool",
          "internalType": "bool"
        },
        {
          "name": "isWin",
          "type": "bool",
          "internalType": "bool"
        },
        {
          "name": "isCompleted",
          "type": "bool",
          "internalType": "bool"
        },
        {
          "name": "chosenSide",
          "type": "uint8",
          "internalType": "uint8"
        },
        {
          "name": "amount",
          "type": "uint256",
          "internalType": "uint256"
        },
        {
          "name": "result",
          "type": "uint8",
          "internalType": "uint8"
        },
        {
          "name": "payout",
          "type": "uint256",
          "internalType": "uint256"
        },
        {
          "name": "requestId",
          "type": "uint256",
          "internalType": "uint256"
        },
        {
          "name": "requestExists",
          "type": "bool",
          "internalType": "bool"
        },
        {
          "name": "requestProcessed",
          "type": "bool",
          "internalType": "bool"
        },
        {
          "name": "recoveryEligible",
          "type": "bool",
          "internalType": "bool"
        },
        {
          "name": "lastPlayTimestamp",
          "type": "uint256",
          "internalType": "uint256"
        },
        {
          "name": "pendingResolution",
          "type": "bool",
          "internalType": "bool"
        }
      ],
      "stateMutability": "view"
    },
    {
      "type": "function",
      "name": "getPlayerForRequest",
      "inputs": [
        {
          "name": "requestId",
          "type": "uint256",
          "internalType": "uint256"
        }
      ],
      "outputs": [
        {
          "name": "",
          "type": "address",
          "internalType": "address"
        }
      ],
      "stateMutability": "view"
    },
    {
      "type": "function",
      "name": "getUserData",
      "inputs": [
        {
          "name": "player",
          "type": "address",
          "internalType": "address"
        }
      ],
      "outputs": [
        {
          "name": "gameState",
          "type": "tuple",
          "internalType": "struct GameState",
          "components": [
            {
              "name": "isActive",
              "type": "bool",
              "internalType": "bool"
            },
            {
              "name": "completed",
              "type": "bool",
              "internalType": "bool"
            },
            {
              "name": "chosenSide",
              "type": "uint8",
              "internalType": "uint8"
            },
            {
              "name": "result",
              "type": "uint8",
              "internalType": "uint8"
            },
            {
              "name": "amount",
              "type": "uint256",
              "internalType": "uint256"
            },
            {
              "name": "payout",
              "type": "uint256",
              "internalType": "uint256"
            }
          ]
        },
        {
          "name": "lastPlayed",
          "type": "uint256",
          "internalType": "uint256"
        }
      ],
      "stateMutability": "view"
    },
    {
      "type": "function",
      "name": "getVrfConfig",
      "inputs": [],
      "outputs": [
        {
          "name": "coordinator",
          "type": "address",
          "internalType": "address"
        },
        {
          "name": "subscriptionId",
          "type": "uint64",
          "internalType": "uint64"
        },
        {
          "name": "keyHash",
          "type": "bytes32",
          "internalType": "bytes32"
        },
        {
          "name": "gasLimit",
          "type": "uint32",
          "internalType": "uint32"
        },
        {
          "name": "confirmations",
          "type": "uint16",
          "internalType": "uint16"
        },
        {
          "name": "words",
          "type": "uint8",
          "internalType": "uint8"
        }
      ],
      "stateMutability": "view"
    },
    {
      "type": "function",
      "name": "hasPendingRequest",
      "inputs": [
        {
          "name": "player",
          "type": "address",
          "internalType": "address"
        }
      ],
      "outputs": [
        {
          "name": "",
          "type": "bool",
          "internalType": "bool"
        }
      ],
      "stateMutability": "view"
    },
    {
      "type": "function",
      "name": "hasPendingResolution",
      "inputs": [
        {
          "name": "player",
          "type": "address",
          "internalType": "address"
        }
      ],
      "outputs": [
        {
          "name": "",
          "type": "bool",
          "internalType": "bool"
        }
      ],
      "stateMutability": "view"
    },
    {
      "type": "function",
      "name": "isActivePlayer",
      "inputs": [
        {
          "name": "",
          "type": "address",
          "internalType": "address"
        }
      ],
      "outputs": [
        {
          "name": "",
          "type": "bool",
          "internalType": "bool"
        }
      ],
      "stateMutability": "view"
    },
    {
      "type": "function",
      "name": "owner",
      "inputs": [],
      "outputs": [
        {
          "name": "",
          "type": "address",
          "internalType": "address"
        }
      ],
      "stateMutability": "view"
    },
    {
      "type": "function",
      "name": "pause",
      "inputs": [],
      "outputs": [],
      "stateMutability": "nonpayable"
    },
    {
      "type": "function",
      "name": "paused",
      "inputs": [],
      "outputs": [
        {
          "name": "",
          "type": "bool",
          "internalType": "bool"
        }
      ],
      "stateMutability": "view"
    },
    {
      "type": "function",
      "name": "rawFulfillRandomWords",
      "inputs": [
        {
          "name": "requestId",
          "type": "uint256",
          "internalType": "uint256"
        },
        {
          "name": "randomWords",
          "type": "uint256[]",
          "internalType": "uint256[]"
        }
      ],
      "outputs": [],
      "stateMutability": "nonpayable"
    },
    {
      "type": "function",
      "name": "recoverOwnStuckGame",
      "inputs": [],
      "outputs": [],
      "stateMutability": "nonpayable"
    },
    {
      "type": "function",
      "name": "renounceOwnership",
      "inputs": [],
      "outputs": [],
      "stateMutability": "nonpayable"
    },
    {
      "type": "function",
      "name": "resolveGame",
      "inputs": [
        {
          "name": "player",
          "type": "address",
          "internalType": "address"
        }
      ],
      "outputs": [],
      "stateMutability": "nonpayable"
    },
    {
      "type": "function",
      "name": "s_requests",
      "inputs": [
        {
          "name": "",
          "type": "uint256",
          "internalType": "uint256"
        }
      ],
      "outputs": [
        {
          "name": "fulfilled",
          "type": "bool",
          "internalType": "bool"
        },
        {
          "name": "exists",
          "type": "bool",
          "internalType": "bool"
        }
      ],
      "stateMutability": "view"
    },
    {
      "type": "function",
      "name": "setVrfCallbackGasLimit",
      "inputs": [
        {
          "name": "_callbackGasLimit",
          "type": "uint32",
          "internalType": "uint32"
        }
      ],
      "outputs": [],
      "stateMutability": "nonpayable"
    },
    {
      "type": "function",
      "name": "setVrfKeyHash",
      "inputs": [
        {
          "name": "_keyHash",
          "type": "bytes32",
          "internalType": "bytes32"
        }
      ],
      "outputs": [],
      "stateMutability": "nonpayable"
    },
    {
      "type": "function",
      "name": "setVrfNumWords",
      "inputs": [
        {
          "name": "_numWords",
          "type": "uint8",
          "internalType": "uint8"
        }
      ],
      "outputs": [],
      "stateMutability": "nonpayable"
    },
    {
      "type": "function",
      "name": "setVrfRequestConfirmations",
      "inputs": [
        {
          "name": "_requestConfirmations",
          "type": "uint16",
          "internalType": "uint16"
        }
      ],
      "outputs": [],
      "stateMutability": "nonpayable"
    },
    {
      "type": "function",
      "name": "setVrfSubscriptionId",
      "inputs": [
        {
          "name": "_subscriptionId",
          "type": "uint64",
          "internalType": "uint64"
        }
      ],
      "outputs": [],
      "stateMutability": "nonpayable"
    },
    {
      "type": "function",
      "name": "totalGamesPlayed",
      "inputs": [],
      "outputs": [
        {
          "name": "",
          "type": "uint256",
          "internalType": "uint256"
        }
      ],
      "stateMutability": "view"
    },
    {
      "type": "function",
      "name": "totalPayoutAmount",
      "inputs": [],
      "outputs": [
        {
          "name": "",
          "type": "uint256",
          "internalType": "uint256"
        }
      ],
      "stateMutability": "view"
    },
    {
      "type": "function",
      "name": "totalWageredAmount",
      "inputs": [],
      "outputs": [
        {
          "name": "",
          "type": "uint256",
          "internalType": "uint256"
        }
      ],
      "stateMutability": "view"
    },
    {
      "type": "function",
      "name": "transferOwnership",
      "inputs": [
        {
          "name": "newOwner",
          "type": "address",
          "internalType": "address"
        }
      ],
      "outputs": [],
      "stateMutability": "nonpayable"
    },
    {
      "type": "function",
      "name": "unpause",
      "inputs": [],
      "outputs": [],
      "stateMutability": "nonpayable"
    },
    {
      "type": "event",
      "name": "BetPlaced",
      "inputs": [
        {
          "name": "player",
          "type": "address",
          "indexed": true,
          "internalType": "address"
        },
        {
          "name": "requestId",
          "type": "uint256",
          "indexed": false,
          "internalType": "uint256"
        },
        {
          "name": "chosenSide",
          "type": "uint8",
          "indexed": false,
          "internalType": "uint8"
        },
        {
          "name": "amount",
          "type": "uint256",
          "indexed": false,
          "internalType": "uint256"
        }
      ],
      "anonymous": false
    },
    {
      "type": "event",
      "name": "GameCompleted",
      "inputs": [
        {
          "name": "player",
          "type": "address",
          "indexed": true,
          "internalType": "address"
        },
        {
          "name": "requestId",
          "type": "uint256",
          "indexed": false,
          "internalType": "uint256"
        },
        {
          "name": "result",
          "type": "uint8",
          "indexed": false,
          "internalType": "uint8"
        },
        {
          "name": "payout",
          "type": "uint256",
          "indexed": false,
          "internalType": "uint256"
        }
      ],
      "anonymous": false
    },
    {
      "type": "event",
      "name": "GameRecovered",
      "inputs": [
        {
          "name": "player",
          "type": "address",
          "indexed": true,
          "internalType": "address"
        },
        {
          "name": "requestId",
          "type": "uint256",
          "indexed": false,
          "internalType": "uint256"
        },
        {
          "name": "refundAmount",
          "type": "uint256",
          "indexed": false,
          "internalType": "uint256"
        }
      ],
      "anonymous": false
    },
    {
      "type": "event",
      "name": "OwnershipTransferred",
      "inputs": [
        {
          "name": "previousOwner",
          "type": "address",
          "indexed": true,
          "internalType": "address"
        },
        {
          "name": "newOwner",
          "type": "address",
          "indexed": true,
          "internalType": "address"
        }
      ],
      "anonymous": false
    },
    {
      "type": "event",
      "name": "Paused",
      "inputs": [
        {
          "name": "account",
          "type": "address",
          "indexed": false,
          "internalType": "address"
        }
      ],
      "anonymous": false
    },
    {
      "type": "event",
      "name": "Unpaused",
      "inputs": [
        {
          "name": "account",
          "type": "address",
          "indexed": false,
          "internalType": "address"
        }
      ],
      "anonymous": false
    },
    {
      "type": "event",
      "name": "VRFCallbackGasLimitUpdated",
      "inputs": [
        {
          "name": "oldLimit",
          "type": "uint32",
          "indexed": false,
          "internalType": "uint32"
        },
        {
          "name": "newLimit",
          "type": "uint32",
          "indexed": false,
          "internalType": "uint32"
        }
      ],
      "anonymous": false
    },
    {
      "type": "event",
      "name": "VRFKeyHashUpdated",
      "inputs": [
        {
          "name": "oldKeyHash",
          "type": "bytes32",
          "indexed": false,
          "internalType": "bytes32"
        },
        {
          "name": "newKeyHash",
          "type": "bytes32",
          "indexed": false,
          "internalType": "bytes32"
        }
      ],
      "anonymous": false
    },
    {
      "type": "event",
      "name": "VRFNumWordsUpdated",
      "inputs": [
        {
          "name": "oldNumWords",
          "type": "uint8",
          "indexed": false,
          "internalType": "uint8"
        },
        {
          "name": "newNumWords",
          "type": "uint8",
          "indexed": false,
          "internalType": "uint8"
        }
      ],
      "anonymous": false
    },
    {
      "type": "event",
      "name": "VRFRequestConfirmationsUpdated",
      "inputs": [
        {
          "name": "oldConfirmations",
          "type": "uint16",
          "indexed": false,
          "internalType": "uint16"
        },
        {
          "name": "newConfirmations",
          "type": "uint16",
          "indexed": false,
          "internalType": "uint16"
        }
      ],
      "anonymous": false
    },
    {
      "type": "event",
      "name": "VRFSubscriptionIdUpdated",
      "inputs": [
        {
          "name": "oldId",
          "type": "uint64",
          "indexed": false,
          "internalType": "uint64"
        },
        {
          "name": "newId",
          "type": "uint64",
          "indexed": false,
          "internalType": "uint64"
        }
      ],
      "anonymous": false
    },
    {
      "type": "error",
      "name": "BurnFailed",
      "inputs": [
        {
          "name": "account",
          "type": "address",
          "internalType": "address"
        },
        {
          "name": "amount",
          "type": "uint256",
          "internalType": "uint256"
        }
      ]
    },
    {
      "type": "error",
      "name": "EnforcedPause",
      "inputs": []
    },
    {
      "type": "error",
      "name": "ExpectedPause",
      "inputs": []
    },
    {
      "type": "error",
      "name": "GameError",
      "inputs": [
        {
          "name": "reason",
          "type": "string",
          "internalType": "string"
        }
      ]
    },
    {
      "type": "error",
      "name": "InsufficientAllowance",
      "inputs": [
        {
          "name": "required",
          "type": "uint256",
          "internalType": "uint256"
        },
        {
          "name": "allowed",
          "type": "uint256",
          "internalType": "uint256"
        }
      ]
    },
    {
      "type": "error",
      "name": "InsufficientUserBalance",
      "inputs": [
        {
          "name": "required",
          "type": "uint256",
          "internalType": "uint256"
        },
        {
          "name": "available",
          "type": "uint256",
          "internalType": "uint256"
        }
      ]
    },
    {
      "type": "error",
      "name": "InvalidBetParameters",
      "inputs": [
        {
          "name": "reason",
          "type": "string",
          "internalType": "string"
        }
      ]
    },
    {
      "type": "error",
      "name": "MaxPayoutExceeded",
      "inputs": [
        {
          "name": "potentialPayout",
          "type": "uint256",
          "internalType": "uint256"
        },
        {
          "name": "maxAllowed",
          "type": "uint256",
          "internalType": "uint256"
        }
      ]
    },
    {
      "type": "error",
      "name": "MintFailed",
      "inputs": [
        {
          "name": "account",
          "type": "address",
          "internalType": "address"
        },
        {
          "name": "amount",
          "type": "uint256",
          "internalType": "uint256"
        }
      ]
    },
    {
      "type": "error",
      "name": "OnlyCoordinatorCanFulfill",
      "inputs": [
        {
          "name": "have",
          "type": "address",
          "internalType": "address"
        },
        {
          "name": "want",
          "type": "address",
          "internalType": "address"
        }
      ]
    },
    {
      "type": "error",
      "name": "OwnableInvalidOwner",
      "inputs": [
        {
          "name": "owner",
          "type": "address",
          "internalType": "address"
        }
      ]
    },
    {
      "type": "error",
      "name": "OwnableUnauthorizedAccount",
      "inputs": [
        {
          "name": "account",
          "type": "address",
          "internalType": "address"
        }
      ]
    },
    {
      "type": "error",
      "name": "PayoutCalculationError",
      "inputs": [
        {
          "name": "message",
          "type": "string",
          "internalType": "string"
        }
      ]
    },
    {
      "type": "error",
      "name": "ReentrancyGuardReentrantCall",
      "inputs": []
    },
    {
      "type": "error",
      "name": "TransferFailed",
      "inputs": [
        {
          "name": "from",
          "type": "address",
          "internalType": "address"
        },
        {
          "name": "to",
          "type": "address",
          "internalType": "address"
        },
        {
          "name": "amount",
          "type": "uint256",
          "internalType": "uint256"
        }
      ]
    },
    {
      "type": "error",
      "name": "VRFError",
      "inputs": [
        {
          "name": "reason",
          "type": "string",
          "internalType": "string"
        }
      ]
    }
  ],
  "bytecode": {
    "object": "0x60c0346102ff57601f613f5c38819003918201601f19168301916001600160401b038311848410176103035780849260e0946040528339810103126102ff5761004781610317565b9061005460208201610317565b60408201519092906001600160401b03811681036102ff57606083015160808401519163ffffffff83168093036102ff5760a08501519461ffff861686036102ff5760c001519560ff8716908188036102ff5760015f558060805233156102ec5760018054610100600160a81b0319811633600881811b610100600160a81b031692909217909355604051989291901c6001600160a01b03167f8be0079c531659141344cd1fd0a4f28419497f9722a3daafe3b4186f6b6457e05f80a36001600160a01b03169586156102aa57506001600160a01b031690811561026557841561021657156101d15765ffff000000009460a05260095491600160a01b600160e01b039060a01b169163ffffffff60e01b161717600955600a5566ff000000000000600b549460301b169366ffffffffffffff1916179160201b161717600b55604051613c30908161032c823960805181612dfa015260a0518181816103e30152818161115d015281816114a601528181611d0801526128ed0152f35b60405162461bcd60e51b815260206004820152601e60248201527f4e756d626572206f6620776f7264732063616e6e6f74206265207a65726f00006044820152606490fd5b60405162461bcd60e51b815260206004820152602160248201527f43616c6c6261636b20676173206c696d69742063616e6e6f74206265207a65726044820152606f60f81b6064820152608490fd5b60405162461bcd60e51b815260206004820152601e60248201527f56524620636f6f7264696e61746f722063616e6e6f74206265207a65726f00006044820152606490fd5b62461bcd60e51b815260206004820152601c60248201527f546f6b656e20616464726573732063616e6e6f74206265207a65726f000000006044820152606490fd5b631e4fbdf760e01b5f525f60045260245ffd5b5f80fd5b634e487b7160e01b5f52604160045260245ffd5b51906001600160a01b03821682036102ff5756fe6080806040526004361015610012575f80fd5b5f905f3560e01c9081630424315114612f94575080630c99375d14612f1757806318ea4d6714612e975780631995cec614612e7c5780631fe543e314612d73578063309167f514612d4e57806332bc18d014612cfb57806338f8bc6d14612ce05780633f4ba83a14612c555780634689b44114612c3057806348aeb7d41461267a5780634ca1a8381461265e57806350721cac1461256357806354a7d9311461251557806354e4437e1461232d57806357816f3e146123115780635a405c87146122215780635bdb2e1b146122035780635c492129146121e55780635c975abb146121c25780635d424b8514612144578063715018a6146120c15780638456cb591461205b5780638da5cb5b14612024578063a168fa8914611fe9578063a20ff9fc14611b53578063ab14953314611a2f578063b52a085514611342578063b55f108f146112f2578063c1066251146112d6578063c36df2d614611281578063ce84a53b146111ca578063d26f580814611181578063d56ec8c914611130578063e4aadc18146110b9578063e7efcfc21461109b578063f081030914610fdf578063f2fde38b14610ee7578063f3b4d4cb146103405763ffc9896b146101d6575f80fd5b3461033d57602060031936011261033d5760043573ffffffffffffffffffffffffffffffffffffffff811680910361033b578160a060405161021781612fd0565b828152826020820152826040820152826060820152826080820152015280156102dc578160409160e0935260026020522063ffffffff60058201541660405161025f81612fd0565b82549260ff8085161515948584528160208501818360081c16151581526040860190828460101c16825282606088019460181c16845260a0600260018801549760808a0198895201549701968752604051988952511515602089015251166040870152511660608501525160808401525160a083015260c0820152f35b6040517f34460f4100000000000000000000000000000000000000000000000000000000815260206004820152601660248201527f496e76616c696420706c617965722061646472657373000000000000000000006044820152606490fd5b505b80fd5b503461033d57604060031936011261033d5761035a613061565b9060243590610367613911565b61036f613948565b8115610e89576a084595161401484a0000008211610e2b5760ff831692600184141580610e20575b610d9c573382526002602052604082209260ff845416610d3e57600384018054610ce057600785019460ff865460101c16610c5d5773ffffffffffffffffffffffffffffffffffffffff7f0000000000000000000000000000000000000000000000000000000000000000166040517f70a08231000000000000000000000000000000000000000000000000000000008152336004820152602081602481855afa908115610bf0578791610c2b575b50848110610bfb57506040517fdd62ed3e000000000000000000000000000000000000000000000000000000008152336004820152306024820152602081604481855afa908115610bf0578791610bbe575b50848110610b8e57508360011b848104600203610b6157847f7fffffffffffffffffffffffffffffffffffffffffffffffffffffffffffffff811603610b03576a108b2a2c280290940000008111610ac957604051907f6f97e31c000000000000000000000000000000000000000000000000000000008252602082600481865afa918215610abe578892610a8a575b50818111610a5c575050803b15610a58576040517f79cc6790000000000000000000000000000000000000000000000000000000008152336004820152602481018590529086908290604490829084905af18015610a3457610a3f575b5060ff9596610596846008546130b6565b600855602060095460a4600a548973ffffffffffffffffffffffffffffffffffffffff600b54946040519d8e9687957f5d3b1d30000000000000000000000000000000000000000000000000000000008752600487015267ffffffffffffffff8360a01c16602487015261ffff818a1c16604487015263ffffffff8116606487015260301c166084850152165af1968715610a345786976109fc575b506020976040516106438a82613008565b8781525f3681376040516060810181811067ffffffffffffffff8211176109cf57906001916040528981528b8101828152604082019384528b8b52600c8d5260408b209151151560ff60ff19845416911515161782555115157fffffffffffffffffffffffffffffffffffffffffffffffffffffffffffff00ff61ff00835492151560081b1691161781550190519081519167ffffffffffffffff83116109cf579282828d8d9998966106f982978f9a97613210565b01908752848720875b8381106109b5575050505060029392859260a092898552600d835260408520337fffffffffffffffffffffffff0000000000000000000000000000000000000000825416179055898552600e835260408520600160ff198254161790556005860163ffffffff42167fffffffffffffffffffffffffffffffffffffffffffffffffffffffff000000008254161790554360068701557fffffffffffffffffffffffffffffffffffffffffffffffffffffffffff0000ff815416905583600886015583604051926107d184612fd0565b6001845283015260408201528260608201528860808201520152600160ff198254161781557fffffffffffffffffffffffffffffffffffffffffffffffffffffffffffff00ff815416815580547fffffffffffffffffffffffffffffffffffffffffffffffffffffffffff00ffff62ff00008960101b1691161781557fffffffffffffffffffffffffffffffffffffffffffffffffffffffff00ffffff81541681558560018201550155553383526005855260ff604084205416156108df575b6040805185815260ff90931660208401528201526001919033907f1efa8a4db358fbd4b3e1004cca7c5a1bdc9de3512d3392d48a51d1961316f9839080606081015b0390a255604051908152f35b60035468010000000000000000811015610988576108d3600194939261095961092e84887f1efa8a4db358fbd4b3e1004cca7c5a1bdc9de3512d3392d48a51d1961316f9839601600355613071565b339073ffffffffffffffffffffffffffffffffffffffff8084549260031b9316831b921b1916179055565b60035433865260048952604086205533855260058852604085208660ff19825416179055929394505050610891565b6024847f4e487b710000000000000000000000000000000000000000000000000000000081526041600452fd5b8251828201558e9a508d98508f9690920191600101610702565b60248a7f4e487b710000000000000000000000000000000000000000000000000000000081526041600452fd5b9096506020813d602011610a2c575b81610a1860209383613008565b81010312610a285751955f610632565b5f80fd5b3d9150610a0b565b6040513d88823e3d90fd5b610a4a868092613008565b610a54575f610585565b8480fd5b8580fd5b7f21e510be000000000000000000000000000000000000000000000000000000008852600452602452604486fd5b9091506020813d602011610ab6575b81610aa660209383613008565b81010312610a285751905f610528565b3d9150610a99565b6040513d8a823e3d90fd5b7f21e510be0000000000000000000000000000000000000000000000000000000087526004526a108b2a2c28029094000000602452604486fd5b60646040517f327512f600000000000000000000000000000000000000000000000000000000815260206004820152601b60248201527f5061796f75742063616c63756c6174696f6e206f766572666c6f7700000000006044820152fd5b6024877f4e487b710000000000000000000000000000000000000000000000000000000081526011600452fd5b86604491867f2a1b2dd8000000000000000000000000000000000000000000000000000000008352600452602452fd5b90506020813d602011610be8575b81610bd960209383613008565b81010312610a2857515f610498565b3d9150610bcc565b6040513d89823e3d90fd5b86604491867f5f504d20000000000000000000000000000000000000000000000000000000008352600452602452fd5b90506020813d602011610c55575b81610c4660209383613008565b81010312610a2857515f610446565b3d9150610c39565b60846040517f13b419a9000000000000000000000000000000000000000000000000000000008152602060048201526024808201527f50726576696f75732067616d65206177616974696e67207265736f6c7665476160448201527f6d652829000000000000000000000000000000000000000000000000000000006064820152fd5b60646040517f13b419a900000000000000000000000000000000000000000000000000000000815260206004820152601a60248201527f557365722068617320612070656e64696e6720726571756573740000000000006044820152fd5b60646040517f13b419a900000000000000000000000000000000000000000000000000000000815260206004820152601760248201527f557365722068617320616e206163746976652067616d650000000000000000006044820152fd5b60846040517f34460f4100000000000000000000000000000000000000000000000000000000815260206004820152603860248201527f496e76616c69642063686f73656e207369646520286d7573742062652031206660448201527f6f72204845414453206f72203220666f72205441494c532900000000000000006064820152fd5b506002841415610397565b60646040517f34460f4100000000000000000000000000000000000000000000000000000000815260206004820152601460248201527f42657420616d6f756e7420746f6f206c617267650000000000000000000000006044820152fd5b60646040517f34460f4100000000000000000000000000000000000000000000000000000000815260206004820152601960248201527f42657420616d6f756e742063616e6e6f74206265207a65726f000000000000006044820152fd5b503461033d57602060031936011261033d5760043573ffffffffffffffffffffffffffffffffffffffff811690818103610fdb57610f236138c1565b8115610faf5773ffffffffffffffffffffffffffffffffffffffff9074ffffffffffffffffffffffffffffffffffffffff006001549160081b167fffffffffffffffffffffff0000000000000000000000000000000000000000ff82161760015560081c167f8be0079c531659141344cd1fd0a4f28419497f9722a3daafe3b4186f6b6457e08380a380f35b6024837f1e4fbdf700000000000000000000000000000000000000000000000000000000815280600452fd5b8280fd5b503461033d57602060031936011261033d5760043567ffffffffffffffff811690818103610fdb577bffffffffffffffff00000000000000000000000000000000000000007fffffffff0000000000000000ffffffffffffffffffffffffffffffffffffffff9161104e6138c1565b7f37a9861ca728332def304244cf36366a0f7cb0cf171746e03cb85f2b59541b7560406009549581519067ffffffffffffffff8860a01c1682526020820152a160a01b1691161760095580f35b503461033d578060031936011261033d576020600754604051908152f35b503461033d578060031936011261033d5760c060095460ff600a54600b549067ffffffffffffffff6040519473ffffffffffffffffffffffffffffffffffffffff8116865260a01c166020850152604084015263ffffffff8116606084015261ffff8160201c16608084015260301c1660a0820152f35b503461033d578060031936011261033d57602060405173ffffffffffffffffffffffffffffffffffffffff7f0000000000000000000000000000000000000000000000000000000000000000168152f35b503461033d57602060031936011261033d5760043573ffffffffffffffffffffffffffffffffffffffff811680910361033b578160409160209352600483522054604051908152f35b503461033d57602060031936011261033d5760043573ffffffffffffffffffffffffffffffffffffffff8116810361033b57611205906132cd565b90604051918291602083016020845282518091526020604085019301915b818110611231575050500390f35b91935091602060a06001926080875160ff815116835260ff85820151168584015263ffffffff60408201511660408401526060810151606084015201516080820152019401910191849392611223565b503461033d57602060031936011261033d5760043561129e6138c1565b7f41eba743241a4120a10538e4c887baf17167ecec55a062773811fab992c72e116040600a548151908152836020820152a1600a5580f35b503461033d578060031936011261033d576020604051600a8152f35b503461033d57602060031936011261033d576004359060035482101561033d57602073ffffffffffffffffffffffffffffffffffffffff61133284613071565b90549060031b1c16604051908152f35b503461033d57602060031936011261033d5760043573ffffffffffffffffffffffffffffffffffffffff811690818103610fdb5761137e6138c1565b611386613911565b8183526002602052604083209060ff825416156119d05760038201805492831515929183806119ba575b80611974575b6118ef57600782019260ff845460101c1661186a57600683015461012c810180911161183d5743118563ffffffff6113f381600588015416613255565b16421181611823575b82159261181a575b508115611811575b5061178e57600183015494851561172f57889283916116ca575b84547fffffffffffffffffffffffffffffffffffffffffffffffffffffffff00ff00001663fe0001001785556002850187905561146283613a41565b557fffffffffffffffffffffffffffffffffffffffffffffffffffffffffff0000ff845416845581600884015573ffffffffffffffffffffffffffffffffffffffff7f000000000000000000000000000000000000000000000000000000000000000016803b15610fdb576040517f40c10f1900000000000000000000000000000000000000000000000000000000815273ffffffffffffffffffffffffffffffffffffffff9290921660048301526024820186905282908290604490829084905af180156116bf576116aa575b5050600460ff825460101c16916040519261154a84612fec565b835260fe602084015263ffffffff421660408401528460608401528460808401520190600a8254105f1461161e578154680100000000000000008110156115f15760ff600a604096946115d17ff43f4cfd330c9814ec89dcb330ca1c7559745bb35a6ea4068b171116c4ea3d539997956115cb86600187980185558461326e565b9061397c565b5406161660ff198254161790555b82519182526020820152a26001815580f35b6024887f4e487b710000000000000000000000000000000000000000000000000000000081526041600452fd5b6115cb6116309260ff8554169061326e565b600160ff8254160160ff811161167d57917ff43f4cfd330c9814ec89dcb330ca1c7559745bb35a6ea4068b171116c4ea3d53939160ff600a8160409616061660ff198254161790556115df565b6024867f4e487b710000000000000000000000000000000000000000000000000000000081526011600452fd5b816116b491613008565b610a5857855f611530565b6040513d84823e3d90fd5b878252600d602052604082207fffffffffffffffffffffffff00000000000000000000000000000000000000008154169055878252600e6020526040822060ff198154169055878252600c60205261172a600160408420848155016131e0565b611426565b6040517f13b419a900000000000000000000000000000000000000000000000000000000815260206004820152601160248201527f4e6f7468696e6720746f20726566756e640000000000000000000000000000006044820152606490fd5b60846040517f13b419a9000000000000000000000000000000000000000000000000000000008152602060048201526024808201527f47616d65206e6f7420656c696769626c6520666f7220666f7263652073746f7060448201527f20796574000000000000000000000000000000000000000000000000000000006064820152fd5b9050155f61140c565b1591505f611404565b888b52600c60205260408b205460081c60ff1691506113fc565b6024897f4e487b710000000000000000000000000000000000000000000000000000000081526011600452fd5b6040517f13b419a900000000000000000000000000000000000000000000000000000000815260206004820152602a60248201527f56524620726573706f6e646564202d2063616c6c207265736f6c766547616d6560448201527f282920696e7374656164000000000000000000000000000000000000000000006064820152608490fd5b6040517f13b419a900000000000000000000000000000000000000000000000000000000815260206004820152602860248201527f52657175657374206a7573742066756c66696c6c65642c206c6574205652462060448201527f636f6d706c6574650000000000000000000000000000000000000000000000006064820152608490fd5b506006820154600a810180911161198d574311156113b6565b6024887f4e487b710000000000000000000000000000000000000000000000000000000081526011600452fd5b50848752600c60205260ff6040882054166113b0565b6040517f13b419a900000000000000000000000000000000000000000000000000000000815260206004820152600e60248201527f4e6f206163746976652067616d650000000000000000000000000000000000006044820152606490fd5b503461033d57602060031936011261033d5760043561ffff811690818103610fdb57611a596138c1565b8115611acf5765ffff000000007fffffffffffffffffffffffffffffffffffffffffffffffffffff0000ffffffff917f09ba260748f313ae174a82dc397901ee6f86d831d07cfda07fea8e5adae5ceed6040600b549581519061ffff8860201c1682526020820152a160201b16911617600b5580f35b60846040517f08c379a000000000000000000000000000000000000000000000000000000000815260206004820152602160248201527f5265717565737420636f6e6669726d6174696f6e73206d757374206265203e2060448201527f30000000000000000000000000000000000000000000000000000000000000006064820152fd5b503461033d578060031936011261033d57611b6c613911565b611b74613948565b33815260026020526040812080549060ff8216156119d05760038101908154928315611f8b57838552600c60205260ff60408620541680611f72575b6118ef57600782019160ff835460101c1661186a57600681015461012c8101809111610b6157431163ffffffff611bec81600585015416613255565b164211868852600c60205260ff604089205460081c1690821592611f69575b508115611f60575b50611edc57600181015493841561172f578690868252600c602052611c40600160408420848155016131e0565b868252600d6020908152604080842080547fffffffffffffffffffffffff0000000000000000000000000000000000000000169055888452600e9091528220805460ff1916905582547fffffffffffffffffffffffffffffffffffffffffffffffffffffffff00ff00001663ff00010017835560028301869055611cc333613a41565b557fffffffffffffffffffffffffffffffffffffffffffffffffffffffffff0000ff83541683558560088201558573ffffffffffffffffffffffffffffffffffffffff7f000000000000000000000000000000000000000000000000000000000000000016803b1561033b576040517f40c10f19000000000000000000000000000000000000000000000000000000008152336004820152602481018790529082908290604490829084905af180156116bf57611ec7575b505060049060ff60405193611d8f85612fec565b60101c16835260ff602084015263ffffffff421660408401528460608401528460808401520190600a8254105f14611e6157815468010000000000000000811015611e345760ff92611dee84936115cb846001600a960185558461326e565b5406161660ff198254161790555b60405191825260208201527ff43f4cfd330c9814ec89dcb330ca1c7559745bb35a6ea4068b171116c4ea3d5360403392a26001815580f35b6024877f4e487b710000000000000000000000000000000000000000000000000000000081526041600452fd5b6115cb611e739260ff8554169061326e565b600160ff8254160160ff8111611e9a57600a60ff809216061660ff19825416179055611dfc565b6024857f4e487b710000000000000000000000000000000000000000000000000000000081526011600452fd5b81611ed191613008565b610a5857855f611d7b565b60846040517f13b419a900000000000000000000000000000000000000000000000000000000815260206004820152602260248201527f47616d65206e6f7420656c696769626c6520666f72207265636f76657279207960448201527f65740000000000000000000000000000000000000000000000000000000000006064820152fd5b9050155f611c13565b1591505f611c0b565b506006820154600a810180911161167d57431115611bb0565b60646040517f13b419a900000000000000000000000000000000000000000000000000000000815260206004820152601d60248201527f4e6f2070656e64696e67207265717565737420746f207265636f7665720000006044820152fd5b503461033d57602060031936011261033d57604080916004358152600c602052205460ff8251918181161515835260081c1615156020820152f35b503461033d578060031936011261033d57602073ffffffffffffffffffffffffffffffffffffffff60015460081c16604051908152f35b503461033d578060031936011261033d576120746138c1565b61207c613911565b612084613948565b600160ff19815416176001557f62e78cea01bee320cd4e420270b5ea74000d11b0c9f74754ebdbfc544b05a2586020604051338152a16001815580f35b503461033d578060031936011261033d576120da6138c1565b8073ffffffffffffffffffffffffffffffffffffffff6001547fffffffffffffffffffffff0000000000000000000000000000000000000000ff811660015560081c167f8be0079c531659141344cd1fd0a4f28419497f9722a3daafe3b4186f6b6457e08280a380f35b503461033d57602060031936011261033d5760043573ffffffffffffffffffffffffffffffffffffffff811680910361033b578160409160209352600283522060ff8154161590816121b5575b816121a2575b506040519015158152f35b60ff91506007015460101c16155f612197565b6003810154159150612191565b503461033d578060031936011261033d57602060ff600154166040519015158152f35b503461033d578060031936011261033d576020600654604051908152f35b503461033d578060031936011261033d576020600854604051908152f35b503461033d57602060031936011261033d5760043563ffffffff811680910361033b5761224c6138c1565b80156122b3577fffffffffffffffffffffffffffffffffffffffffffffffffffffffff00000000600b547f563cbbc005401e97bd6d1352dd9adcdf5d6bd13cf166e0e845f72c1bd4f08a976040805163ffffffff84168152856020820152a11617600b5580f35b60646040517f08c379a000000000000000000000000000000000000000000000000000000000815260206004820152601e60248201527f43616c6c6261636b20676173206c696d6974206d757374206265203e203000006044820152fd5b503461033d578060031936011261033d57602060405160ff8152f35b503461033d57602060031936011261033d5760043573ffffffffffffffffffffffffffffffffffffffff811680910361033b5780156102dc57815260026020526040812080549160ff83169160018101549060ff8560181c1692600282015492600383015463ffffffff6005850154169460ff600786015460101c169681151593846124f8575b859484151586816124d6575b80998d806124ce575b612439575b5050506101a09b60ff916040519c15158d52151560208d0152818160081c16151560408d015260101c1660608b015260808a015260a089015260c088015260e08701521515610100860152151561012085015215156101408401526101608301521515610180820152f35b60069192939a5001549061012c82018092116124a157509b60ff916101a09d43119063ffffffff6124698d613255565b16421181612499575b82612491575b5081612489575b509891819d6123ce565b90505f61247f565b91505f612478565b899150612472565b807f4e487b7100000000000000000000000000000000000000000000000000000000602492526011600452fd5b508c156123c9565b868152600c602052604081205460ff8082169a5060089190911c1697506123c0565b935060018114801561250b575b936123b4565b5060028114612505565b503461033d57602060031936011261033d5760043573ffffffffffffffffffffffffffffffffffffffff811680910361033b5760408260ff9260209452600584522054166040519015158152f35b503461033d57602060031936011261033d5761257d613061565b6125856138c1565b60ff81169081156126005766ff0000000000007fffffffffffffffffffffffffffffffffffffffffffffffffff00ffffffffffff917fe5896f8959ed0b3ac18bbe2654f250c6a92a07998d709e537fd7594602cb594f6040600b549581519060ff8860301c1682526020820152a160301b16911617600b5580f35b60646040517f08c379a000000000000000000000000000000000000000000000000000000000815260206004820152601460248201527f6e756d576f726473206d757374206265203e20300000000000000000000000006044820152fd5b503461033d578060031936011261033d57602060405160028152f35b5034610a28576020600319360112610a28576004359073ffffffffffffffffffffffffffffffffffffffff8216808303610a28576126b6613911565b6126be613948565b80156102dc57805f52600260205260405f206007810160ff815460101c1615612bac5781549460ff861615612b4e57600383018054926008850160ff81549960101c16906001808801549a1660018101809111612a5a5760ff16965f9a888414612a87575b81547fffffffffffffffffffffffffffffffffffffffffffffffffffffffff00ff00001660188a901b63ff0000001617610100178255600282018c905560405193600492919061277286612fec565b855289602086015263ffffffff4216604086015260608501528b608085015201600a8154105f146129fd578054680100000000000000008110156129d057600a60ff926127eb7fffffffffffffffffffffffffffffffffffffffffffffffffffffffffff0000ff966115cb85600188970185558461326e565b5406161660ff198454161783555b5f8a151594856129bc575b600160065401600655818554935555169055825f52600c602052612830600160405f205f8155016131e0565b825f52600d60205260405f207fffffffffffffffffffffffff00000000000000000000000000000000000000008154169055825f52600e60205260405f2060ff19815416905561287f82613a41565b6128d6575b506128cc7fc74777e2214d32e7b4952c2ecbbfc0ec7dc3642e448c3c927261cb69d9f036509394956040519384938460ff604092959493606083019683521660208201520152565b0390a26001815580f35b73ffffffffffffffffffffffffffffffffffffffff7f000000000000000000000000000000000000000000000000000000000000000016803b15610a28576040517f40c10f1900000000000000000000000000000000000000000000000000000000815273ffffffffffffffffffffffffffffffffffffffff929092166004830152602482018790525f908290604490829084905af180156129b15715612884577fc74777e2214d32e7b4952c2ecbbfc0ec7dc3642e448c3c927261cb69d9f036509394505f6129a591613008565b6128cc5f949350612884565b6040513d5f823e3d90fd5b6129c88c6007546130b6565b600755612804565b7f4e487b71000000000000000000000000000000000000000000000000000000005f52604160045260245ffd5b916115cb612a11929360ff8654169061326e565b600160ff835416019060ff8211612a5a5760ff600a817fffffffffffffffffffffffffffffffffffffffffffffffffffffffffff0000ff9416061660ff198454161783556127f9565b7f4e487b71000000000000000000000000000000000000000000000000000000005f52601160045260245ffd5b9a507f7fffffffffffffffffffffffffffffffffffffffffffffffffffffffffffffff8b11612aca578a60011b908b82046002148c151715612a5a57909a612723565b60846040517f327512f600000000000000000000000000000000000000000000000000000000815260206004820152602b60248201527f42657420616d6f756e7420746f6f206c6172676520666f72207061796f75742060448201527f63616c63756c6174696f6e0000000000000000000000000000000000000000006064820152fd5b60646040517f13b419a900000000000000000000000000000000000000000000000000000000815260206004820152601260248201527f47616d65206973206e6f742061637469766500000000000000000000000000006044820152fd5b60846040517f13b419a900000000000000000000000000000000000000000000000000000000815260206004820152602160248201527f4e6f20726573756c742070656e64696e6720666f72207468697320706c61796560448201527f72000000000000000000000000000000000000000000000000000000000000006064820152fd5b34610a28575f600319360112610a285760206040516a108b2a2c280290940000008152f35b34610a28575f600319360112610a2857612c6d6138c1565b612c75613911565b60015460ff811615612cb85760ff19166001557f5db9ee0a495bf2e6ff9c91a7834c1ba4fdd244a5e8aa4e537bd38aeae4b073aa6020604051338152a160015f55005b7f8dfc202b000000000000000000000000000000000000000000000000000000005f5260045ffd5b34610a28575f600319360112610a2857602060405160fe8152f35b34610a28576020600319360112610a285760043573ffffffffffffffffffffffffffffffffffffffff8116809103610a28575f526002602052602060ff600760405f20015460101c166040519015158152f35b34610a28575f600319360112610a285760206040516a084595161401484a0000008152f35b34610a28576040600319360112610a285760243567ffffffffffffffff8111610a285736602382011215610a2857806004013590612db082613049565b91612dbe6040519384613008565b8083526024602084019160051b83010191368311610a2857602401905b828210612e6c578373ffffffffffffffffffffffffffffffffffffffff7f00000000000000000000000000000000000000000000000000000000000000001690813303612e3c57612e3690612e2e613911565b60043561351a565b60015f55005b507f1cf993f4000000000000000000000000000000000000000000000000000000005f523360045260245260445ffd5b8135815260209182019101612ddb565b34610a28575f600319360112610a2857602060405160018152f35b34610a28576040600319360112610a2857612eb66024356004356130e4565b9060405190604082019260408352815180945260206060840192015f945b808610612ee957505082935060208301520390f35b909260208060019273ffffffffffffffffffffffffffffffffffffffff875116815201940195019490612ed4565b34610a28576020600319360112610a285760043573ffffffffffffffffffffffffffffffffffffffff8116809103610a28575f526002602052602060405f2060ff8154169081612f6c57506040519015158152f35b60038101541580159250612f82575b5082612197565b60ff91506007015460101c1682612f7b565b34610a28576020600319360112610a28576020906004355f52600d825273ffffffffffffffffffffffffffffffffffffffff60405f2054168152f35b60c0810190811067ffffffffffffffff8211176129d057604052565b60a0810190811067ffffffffffffffff8211176129d057604052565b90601f7fffffffffffffffffffffffffffffffffffffffffffffffffffffffffffffffe0910116810190811067ffffffffffffffff8211176129d057604052565b67ffffffffffffffff81116129d05760051b60200190565b6004359060ff82168203610a2857565b6003548110156130895760035f5260205f2001905f90565b7f4e487b71000000000000000000000000000000000000000000000000000000005f52603260045260245ffd5b91908201809211612a5a57565b91908203918211612a5a57565b80518210156130895760209160051b010190565b919060035490818410156131c45783826130fe83836130b6565b11156131b25761310f9150826130c3565b907fffffffffffffffffffffffffffffffffffffffffffffffffffffffffffffffe061315361313d84613049565b9361314b6040519586613008565b808552613049565b0136602084013781905f5b83518110156131aa578073ffffffffffffffffffffffffffffffffffffffff61319161318c6001948a6130b6565b613071565b90549060031b1c166131a382876130d0565b520161315e565b509291509250565b6131bf61310f92826130b6565b6130c3565b5091506040516131d5602082613008565b5f81525f3681379190565b8054905f8155816131ef575050565b5f5260205f20908101905b818110613205575050565b5f81556001016131fa565b906801000000000000000081116129d05781549181815582821061323357505050565b5f5260205f2091820191015b81811061324a575050565b5f815560010161323f565b63ffffffff610e109116019063ffffffff8211612a5a57565b8054821015613089575f52600360205f20910201905f90565b9060405161329481612fec565b60806002829463ffffffff815460ff8116865260ff8160081c16602087015260101c166040850152600181015460608501520154910152565b73ffffffffffffffffffffffffffffffffffffffff6060911680156102dc575f52600260205260405f20906004820180549182156134bf5750600a8211156134b857600a925b7fffffffffffffffffffffffffffffffffffffffffffffffffffffffffffffffe061335661334086613049565b9561334e6040519788613008565b808752613049565b015f5b818110613483575050600a8310156133e357507fffffffffffffffffffffffffffffffffffffffffffffffffffffffffffffffff82018281115f5b8481106133a357505050505090565b81612a5a57806133c76133c16133bb600194876130c3565b8761326e565b50613287565b6133d182896130d0565b526133dc81886130d0565b5001613394565b6007015490915060ff1680613451575060ff60095b16905f91600a8101809111925b600a8110613414575050505090565b83612a5a57806134356133c1600a61342e600195876130c3565b068661326e565b61343f82886130d0565b5261344a81876130d0565b5001613405565b7fffffffffffffffffffffffffffffffffffffffffffffffffffffffffffffffff0160ff8111612a5a5760ff906133f8565b60209060405161349281612fec565b5f81525f838201525f60408201525f60608201525f608082015282828901015201613359565b8192613313565b92505050604051906134d2602083613008565b5f82525f90815b8281106134e65750505090565b6020906040516134f581612fec565b5f81525f838201525f60408201525f848201525f6080820152828287010152016134d9565b90815f52600c60205260405f2080549160ff8360081c16156138635760ff831661380557805160ff600b5460301c16036137a757835f52600d60205273ffffffffffffffffffffffffffffffffffffffff60405f2054168015613748575f52600260205260405f20926003840192858454036136ea57600160ff198193161781550191815167ffffffffffffffff81116129d0576135b88185613210565b6020830180945f5260205f205f5b8381106136d6575050505060078401946101007fffffffffffffffffffffffffffffffffffffffffffffffffffffffffffff00ff87541617865560ff85541615613647575050511561308957516008919091015580547fffffffffffffffffffffffffffffffffffffffffffffffffffffffffff00ffff1662010000179055565b915091505f9250808352600c602052613668600160408520858155016131e0565b808352600d602052604083207fffffffffffffffffffffffff000000000000000000000000000000000000000081541690558252600e6020526040822060ff198154169055557fffffffffffffffffffffffffffffffffffffffffffffffffffffffffffff00ff8154169055565b6001906020845194019381840155016135c6565b60646040517f13b419a900000000000000000000000000000000000000000000000000000000815260206004820152601360248201527f52657175657374204944206d69736d61746368000000000000000000000000006044820152fd5b6040517f1726a07e00000000000000000000000000000000000000000000000000000000815260206004820152601660248201527f496e76616c696420706c617965722061646472657373000000000000000000006044820152606490fd5b60646040517f1726a07e00000000000000000000000000000000000000000000000000000000815260206004820152601b60248201527f496e76616c69642072616e646f6d20776f726473206c656e67746800000000006044820152fd5b60646040517f1726a07e00000000000000000000000000000000000000000000000000000000815260206004820152601960248201527f5265717565737420616c72656164792066756c66696c6c6564000000000000006044820152fd5b60646040517f1726a07e00000000000000000000000000000000000000000000000000000000815260206004820152601160248201527f52657175657374206e6f7420666f756e640000000000000000000000000000006044820152fd5b73ffffffffffffffffffffffffffffffffffffffff60015460081c1633036138e557565b7f118cdaa7000000000000000000000000000000000000000000000000000000005f523360045260245ffd5b60025f54146139205760025f55565b7f3ee5aeb5000000000000000000000000000000000000000000000000000000005f5260045ffd5b60ff6001541661395457565b7fd93c0665000000000000000000000000000000000000000000000000000000005f5260045ffd5b9190613a155760808160ff8060029451161660ff19855416178455602081015161ff0085549160081b16807fffffffffffffffffffffffffffffffffffffffffffffffffffffffffffff00ff83161786557fffffffffffffffffffffffffffffffffffffffffffffffffffff0000000000ff65ffffffff0000604085015160101b16921617178455606081015160018501550151910155565b7f4e487b71000000000000000000000000000000000000000000000000000000005f525f60045260245ffd5b73ffffffffffffffffffffffffffffffffffffffff16805f52600560205260ff60405f20541615613bf757805f52600460205260405f20547fffffffffffffffffffffffffffffffffffffffffffffffffffffffffffffffff8101818111612a5a576003547fffffffffffffffffffffffffffffffffffffffffffffffffffffffffffffffff8101908111612a5a57808203613b82575b5050506003548015613b55577fffffffffffffffffffffffffffffffffffffffffffffffffffffffffffffffff01613b0f81613071565b73ffffffffffffffffffffffffffffffffffffffff82549160031b1b19169055600355805f5260046020525f60408120555f52600560205260405f2060ff198154169055565b7f4e487b71000000000000000000000000000000000000000000000000000000005f52603160045260245ffd5b613bb79173ffffffffffffffffffffffffffffffffffffffff613ba7613be393613071565b90549060031b1c16928391613071565b90919073ffffffffffffffffffffffffffffffffffffffff8084549260031b9316831b921b1916179055565b5f52600460205260405f20555f8080613ad8565b5056fea2646970667358221220924f4f6e1197f56ad4d0f7f594ba21af49fc049db8a69e842d434748f008c6c164736f6c634300081e0033",
    "linkReferences": {}
  },
  "methodIdentifiers": {
    "HEADS()": "1995cec6",
    "MAX_BET_AMOUNT()": "309167f5",
    "MAX_HISTORY_SIZE()": "c1066251",
    "MAX_POSSIBLE_PAYOUT()": "4689b441",
    "RESULT_FORCE_STOPPED()": "38f8bc6d",
    "RESULT_RECOVERED()": "57816f3e",
    "TAILS()": "4ca1a838",
    "activePlayerIndex(address)": "d26f5808",
    "activePlayers(uint256)": "b55f108f",
    "canStartNewGame(address)": "5d424b85",
    "flipCoin(uint8,uint256)": "f3b4d4cb",
    "forceStopGame(address)": "b52a0855",
    "gamaToken()": "d56ec8c9",
    "getActivePlayers(uint256,uint256)": "18ea4d67",
    "getBetHistory(address)": "ce84a53b",
    "getGameStatus(address)": "54e4437e",
    "getPlayerForRequest(uint256)": "04243151",
    "getUserData(address)": "ffc9896b",
    "getVrfConfig()": "e4aadc18",
    "hasPendingRequest(address)": "0c99375d",
    "hasPendingResolution(address)": "32bc18d0",
    "isActivePlayer(address)": "54a7d931",
    "owner()": "8da5cb5b",
    "pause()": "8456cb59",
    "paused()": "5c975abb",
    "rawFulfillRandomWords(uint256,uint256[])": "1fe543e3",
    "recoverOwnStuckGame()": "a20ff9fc",
    "renounceOwnership()": "715018a6",
    "resolveGame(address)": "48aeb7d4",
    "s_requests(uint256)": "a168fa89",
    "setVrfCallbackGasLimit(uint32)": "5a405c87",
    "setVrfKeyHash(bytes32)": "c36df2d6",
    "setVrfNumWords(uint8)": "50721cac",
    "setVrfRequestConfirmations(uint16)": "ab149533",
    "setVrfSubscriptionId(uint64)": "f0810309",
    "totalGamesPlayed()": "5c492129",
    "totalPayoutAmount()": "e7efcfc2",
    "totalWageredAmount()": "5bdb2e1b",
    "transferOwnership(address)": "f2fde38b",
    "unpause()": "3f4ba83a"
  },
  "id": 22
}